{
  "contractName": "FormStore",
  "abi": [
    {
      "anonymous": false,
      "inputs": [
        {
          "indexed": false,
          "internalType": "uint256",
          "name": "t0",
          "type": "uint256"
        }
      ],
      "name": "StorageF",
      "type": "event"
    },
    {
      "inputs": [
        {
          "internalType": "address",
          "name": "_ad",
          "type": "address"
        },
        {
          "internalType": "uint256[6]",
          "name": "_sym",
          "type": "uint256[6]"
        },
        {
          "internalType": "string",
          "name": "_stime",
          "type": "string"
        },
        {
          "internalType": "string",
          "name": "_pcode",
          "type": "string"
        }
      ],
      "name": "addForm",
      "outputs": [],
      "stateMutability": "nonpayable",
      "type": "function"
    },
    {
      "inputs": [
        {
          "internalType": "address",
          "name": "_ad",
          "type": "address"
        }
      ],
      "name": "findSym",
      "outputs": [
        {
          "internalType": "uint256",
          "name": "",
          "type": "uint256"
        }
      ],
      "stateMutability": "view",
      "type": "function",
      "constant": true
    }
  ],
  "bytecode": "0x608060405234801561001057600080fd5b5061085b806100206000396000f3fe608060405234801561001057600080fd5b50600436106100365760003560e01c8063368cd0b01461003b578063d4bd094c14610057575b600080fd5b6100556004803603810190610050919061054b565b610087565b005b610071600480360381019061006c919061051e565b6101f6565b60405161007e91906105fb565b60405180910390f35b61008f6102a0565b6040518060a001604052808673ffffffffffffffffffffffffffffffffffffffff168152602001858152602001848152602001838152602001600115158152509050600081602001516000600681106100eb576100ea61076f565b5b6020020151905081600160008873ffffffffffffffffffffffffffffffffffffffff1673ffffffffffffffffffffffffffffffffffffffff16815260200190815260200160002060008201518160000160006101000a81548173ffffffffffffffffffffffffffffffffffffffff021916908373ffffffffffffffffffffffffffffffffffffffff1602179055506020820151816001019060066101909291906102ed565b5060408201518160070190805190602001906101ad92919061032d565b5060608201518160080190805190602001906101ca92919061032d565b5060808201518160090160006101000a81548160ff021916908315150217905550905050505050505050565b600080600160008473ffffffffffffffffffffffffffffffffffffffff1673ffffffffffffffffffffffffffffffffffffffff168152602001908152602001600020600101600680602002604051908101604052809291908260068015610272576020028201915b81548152602001906001019080831161025e575b5050505050905060008160006006811061028f5761028e61076f565b5b602002015190508092505050919050565b6040518060a00160405280600073ffffffffffffffffffffffffffffffffffffffff1681526020016102d06103b3565b815260200160608152602001606081526020016000151581525090565b826006810192821561031c579160200282015b8281111561031b578251825591602001919060010190610300565b5b50905061032991906103d5565b5090565b828054610339906106dd565b90600052602060002090601f01602090048101928261035b57600085556103a2565b82601f1061037457805160ff19168380011785556103a2565b828001600101855582156103a2579182015b828111156103a1578251825591602001919060010190610386565b5b5090506103af91906103d5565b5090565b6040518060c00160405280600690602082028036833780820191505090505090565b5b808211156103ee5760008160009055506001016103d6565b5090565b60006104056104008461063b565b610616565b9050808285602086028201111561041f5761041e6107d2565b5b60005b8581101561044f57816104358882610509565b845260208401935060208301925050600181019050610422565b5050509392505050565b600061046c61046784610661565b610616565b905082815260208101848484011115610488576104876107d7565b5b6104938482856106ce565b509392505050565b6000813590506104aa816107f7565b92915050565b600082601f8301126104c5576104c46107cd565b5b60066104d28482856103f2565b91505092915050565b600082601f8301126104f0576104ef6107cd565b5b8135610500848260208601610459565b91505092915050565b6000813590506105188161080e565b92915050565b600060208284031215610534576105336107e1565b5b60006105428482850161049b565b91505092915050565b6000806000806101208587031215610566576105656107e1565b5b60006105748782880161049b565b9450506020610585878288016104b0565b93505060e085013567ffffffffffffffff8111156105a6576105a56107dc565b5b6105b2878288016104db565b92505061010085013567ffffffffffffffff8111156105d4576105d36107dc565b5b6105e0878288016104db565b91505092959194509250565b6105f5816106c4565b82525050565b600060208201905061061060008301846105ec565b92915050565b6000610620610631565b905061062c828261070f565b919050565b6000604051905090565b600067ffffffffffffffff8211156106565761065561079e565b5b602082029050919050565b600067ffffffffffffffff82111561067c5761067b61079e565b5b610685826107e6565b9050602081019050919050565b600061069d826106a4565b9050919050565b600073ffffffffffffffffffffffffffffffffffffffff82169050919050565b6000819050919050565b82818337600083830152505050565b600060028204905060018216806106f557607f821691505b6020821081141561070957610708610740565b5b50919050565b610718826107e6565b810181811067ffffffffffffffff821117156107375761073661079e565b5b80604052505050565b7f4e487b7100000000000000000000000000000000000000000000000000000000600052602260045260246000fd5b7f4e487b7100000000000000000000000000000000000000000000000000000000600052603260045260246000fd5b7f4e487b7100000000000000000000000000000000000000000000000000000000600052604160045260246000fd5b600080fd5b600080fd5b600080fd5b600080fd5b600080fd5b6000601f19601f8301169050919050565b61080081610692565b811461080b57600080fd5b50565b610817816106c4565b811461082257600080fd5b5056fea26469706673582212206195b62cfdd2f1385f8c779eec2270e88bdacecb9194cbbb49c882ad75763fef64736f6c63430008070033",
  "immutableReferences": {},
  "source": "pragma solidity >=0.4.22 <0.9.0;\r\npragma experimental ABIEncoderV2;\r\n\r\n//import {IterableMapping} from \"./IterableMapping.sol\";\r\n//import {AccessControl} from \"../node_modules/openzeppelin-solidity/contracts/access/AccessControl.sol\";\r\n//import   './IterableMapping.sol';\r\n//import {User} from './User.sol';\r\n\r\n\r\n\r\ncontract FormStore{\r\n\r\n\r\n   // using IterableMapping for IterableMapping.Map;\r\n  //  IterableMapping.Map private map;\r\n\r\n    struct FormStruct{\r\n\r\n          address userAddress;\r\n          uint[6] symSet;\r\n\r\n          string startTime; //\r\n          string postcode; //\r\n          //uint   index;\r\n          bool   isValid;\r\n          \r\n           //string fileName;\r\n          //string fileType;\r\n          //string fileHash;\r\n          //string fileTime;\r\n          //string version;\r\n\r\n    }\r\n\r\n\r\n  //  string[] private photoSet;\r\n\r\n    uint[] indexSet; //\r\n  //  address[] addrSet;\r\n\r\n    mapping(address =>FormStruct) addressToStruct;\r\n    mapping(string =>FormStruct)  hashToStruct;\r\n\r\n   \r\n\r\n    event StorageF(uint t0); \r\n    \r\n\r\n\r\n\r\n//\r\nfunction addForm(address _ad,uint[6] memory _sym,string memory _stime, string memory _pcode)public {\r\n  FormStruct memory fs;\r\n  fs= FormStruct(_ad,_sym,_stime,_pcode,true);\r\n  uint t0= fs.symSet[0];\r\n\r\n  addressToStruct[_ad]=fs;\r\n\r\n  //emit StorageF(t0);\r\n  \r\n}\r\n// \r\nfunction findSym(address _ad) public view returns(uint){\r\n    uint[6] memory tset=addressToStruct[_ad].symSet;\r\n    uint t0 = tset[0];\r\n\r\n    return t0;\r\n}\r\n\r\n\r\n//\r\n/******************************** \r\n    function storeHash(address _addr,string memory _fileHash,string memory _fileName,string memory _fileTime) public {\r\n\r\n        FormStruct memory ps;\r\n\r\n        bool returnFlag =true;\r\n\r\n        //hash\r\n        if(map.insertedHash[_fileHash]!=true){ //hash\r\n\r\n           //   ps= FormStruct(_addr,_fileName,_fileHash,_fileTime,map.size(),true);\r\n              map.set(_addr, _fileHash);                        \r\n              hashToStruct[_fileHash]=ps;\r\n        }else{       //Hash,\r\n          returnFlag = false;\r\n        }\r\n     \r\n        uint msize =  map.size();\r\n        emit StorageE(_addr,returnFlag,msize);\r\n\r\n    }\r\n\r\n    ***************/\r\n\r\n//address\r\n/******************\r\n\r\n   function showList(address _addr) public{\r\n\r\n\r\n   //\r\n    uint len=indexSet.length; \r\n    if(len >0){\r\n      delete indexSet;\r\n    }\r\n\r\n\r\n    for (uint i=0;i<map.size();i++){\r\n\r\n           if(map.values[i]==map.indexOf[_addr]){\r\n                indexSet.push(i);\r\n           }\r\n   }\r\n\r\n      uint hsize = indexSet.length;\r\n\r\n      emit StorageU(indexSet,hsize);\r\n  \r\n  }\r\n\r\n  **************/\r\n/******************\r\n   function getHashByPid(uint _pid)public view returns(string memory){\r\n         return map.hashs[_pid] ;\r\n  }\r\n \r\n\r\n*************/\r\n    //  function hasAddress(address _addr)public view returns(bool) {\r\n    //       if(addressToStruct[_addr].isValid!=true){\r\n    //           return true;\r\n    //       }else{\r\n    //           return false;\r\n    //       }\r\n\r\n    // }\r\n\r\n\r\n    //  function getAddressByHash(string memory newhash)public view returns(address){\r\n    //    return hashToAddress[newhash];\r\n    //  }\r\n\r\n \r\n\r\n    //  function getHashByAddress(address _addr)public view returns(string memory){\r\n    //    return addressToStruct[_addr].fileHash;\r\n    //  }\r\n     \r\n\r\n    \r\n\r\n    // function getHashByUid(uint uid) public view returns(string memory){\r\n    //     uint pid = uIdToPid[uid];\r\n    //     string memory phash= photoSet[pid];\r\n    //     return phash;\r\n    // }\r\n\r\n\r\n\r\n\r\n \r\n\r\n   \r\n/********************** \r\n  function sum0(address _addr) public view returns  (uint[] memory)\r\n  {\r\n  \r\n  uint s=0;\r\n  uint[] memory temp;\r\n        for (uint i = 0; i < map.size(); i++) {\r\n\r\n            address key = map.getKeyAtIndex(i);\r\n           // uint vv=map.get(key) ;\r\n\r\n            if(key==_addr){\r\n            temp[i]=uint(i);\r\n            s++;\r\n        }else{\r\n          temp[i]=uint(6);\r\n        }\r\n      \r\n        }\r\n\r\n    return temp;\r\n  }\r\n****************/\r\n\r\n/************* \r\nfunction sum1() public pure returns  (uint[] memory)\r\n  {\r\n  \r\n uint a=1;\r\n uint b=2;\r\n uint c=3;\r\n uint d=4;\r\n uint e=5;\r\n\r\nuint[] memory temp =new uint[](1) ;\r\n  temp[0] = a;\r\n  temp[1] = b;     \r\n\r\n    return temp;\r\n  }\r\n\r\n   function sum2(address _addr) public view returns  (uint )\r\n  {\r\n  \r\n  uint s=0;\r\n  //uint count=0;\r\n  uint[] memory temp;\r\n        for (uint i = 0; i < map.size(); i++) {\r\n\r\n            address key = map.getKeyAtIndex(i);\r\n           // uint vv=map.get(key) ;\r\n\r\n            if(key==_addr){\r\n            temp[i]=uint(i);\r\n            s++;\r\n        }else{\r\n          temp[i]=uint(6);\r\n          s=10;\r\n        }\r\n      \r\n        }\r\n\r\n    return s;\r\n  }\r\n****************/\r\n/**************\r\n   function sum5() public\r\n  {\r\n    //indexSet.push()\r\n    uint len=indexSet.length;\r\n\r\n    if(len >0){\r\n      // for (uint c=0;c<len;c++){\r\n      //   indexSet[c] =  indexSet[c+1];\r\n      // }\r\n\r\n      delete indexSet;\r\n      indexSet.push(uint(8));\r\n\r\n    }else{\r\n           for(uint i=0;i<uint(5);i++){        \r\n          //indexSet[i]=0;\r\n           indexSet.push(uint(6));\r\n    }\r\n    }\r\n\r\n    emit StorageU(indexSet);\r\n\r\n    // return indexSet;\r\n\r\n    \r\n  }\r\n\r\n******************/\r\n     // function hasHash(string memory ipfsHash)public view returns(bool) {\r\n    //       if(hashToStruct[ipfsHash].isValid!=true){ //true\r\n    //           return true;\r\n    //       }else{\r\n    //           return false;\r\n    //       }\r\n\r\n    // }\r\n\r\n\r\n\r\n\r\n\r\n}",
  "sourcePath": "D:/WinForDev/project/testpetshop/contracts/FormStore.sol",
  "compiler": {
    "name": "solc",
    "version": "0.8.7+commit.e28d00a7.Emscripten.clang"
  },
  "schemaVersion": "3.3.4",
  "updatedAt": "2021-09-09T20:07:54.591Z",
  "networkType": "ethereum",
  "devdoc": {
    "kind": "dev",
    "methods": {},
    "version": 1
  },
  "userdoc": {
    "kind": "user",
    "methods": {},
    "version": 1
  }
}