{
  "contractName": "FormIpfs",
  "abi": [
    {
      "anonymous": false,
      "inputs": [
        {
          "indexed": false,
          "internalType": "address",
          "name": "ad",
          "type": "address"
        },
        {
          "indexed": false,
          "internalType": "bool",
          "name": "flag",
          "type": "bool"
        },
        {
          "indexed": false,
          "internalType": "uint256",
          "name": "msize",
          "type": "uint256"
        }
      ],
      "name": "StorageE",
      "type": "event"
    },
    {
      "anonymous": false,
      "inputs": [
        {
          "indexed": false,
          "internalType": "uint256[]",
          "name": "testSet",
          "type": "uint256[]"
        },
        {
          "indexed": false,
          "internalType": "uint256",
          "name": "hsize",
          "type": "uint256"
        }
      ],
      "name": "StorageU",
      "type": "event"
    },
    {
      "inputs": [
        {
          "internalType": "address",
          "name": "_addr",
          "type": "address"
        },
        {
          "internalType": "string",
          "name": "_fileHash",
          "type": "string"
        },
        {
          "internalType": "string",
          "name": "_fileName",
          "type": "string"
        },
        {
          "internalType": "string",
          "name": "_fileTime",
          "type": "string"
        }
      ],
      "name": "storeHash",
      "outputs": [],
      "stateMutability": "nonpayable",
      "type": "function"
    },
    {
      "inputs": [
        {
          "internalType": "address",
          "name": "_addr",
          "type": "address"
        }
      ],
      "name": "showList",
      "outputs": [],
      "stateMutability": "nonpayable",
      "type": "function"
    },
    {
      "inputs": [
        {
          "internalType": "uint256",
          "name": "_pid",
          "type": "uint256"
        }
      ],
      "name": "getHashByPid",
      "outputs": [
        {
          "internalType": "string",
          "name": "",
          "type": "string"
        }
      ],
      "stateMutability": "view",
      "type": "function"
    },
    {
      "inputs": [
        {
          "internalType": "address",
          "name": "_addr",
          "type": "address"
        }
      ],
      "name": "sum0",
      "outputs": [
        {
          "internalType": "uint256[]",
          "name": "",
          "type": "uint256[]"
        }
      ],
      "stateMutability": "view",
      "type": "function"
    },
    {
      "inputs": [],
      "name": "sum1",
      "outputs": [
        {
          "internalType": "uint256[]",
          "name": "",
          "type": "uint256[]"
        }
      ],
      "stateMutability": "pure",
      "type": "function"
    },
    {
      "inputs": [
        {
          "internalType": "address",
          "name": "_addr",
          "type": "address"
        }
      ],
      "name": "sum2",
      "outputs": [
        {
          "internalType": "uint256",
          "name": "",
          "type": "uint256"
        }
      ],
      "stateMutability": "view",
      "type": "function"
    }
  ],
  "bytecode": "0x608060405234801561001057600080fd5b506114fc806100206000396000f3fe608060405234801561001057600080fd5b50600436106100625760003560e01c8063027309ec146100675780638637ba74146100835780639e5f5044146100b3578063b7cfc04b146100d1578063dcd4011d14610101578063dd261b971461011d575b600080fd5b610081600480360381019061007c9190610cf6565b61014d565b005b61009d60048036038101906100989190610db1565b610402565b6040516100aa919061108a565b60405180910390f35b6100bb6104b5565b6040516100c89190611038565b60405180910390f35b6100eb60048036038101906100e69190610c9c565b610571565b6040516100f8919061112e565b60405180910390f35b61011b60048036038101906101169190610c9c565b610749565b005b61013760048036038101906101329190610c9c565b6108e6565b6040516101449190611038565b60405180910390f35b610155610ab7565b600060019050600115156000600501866040516101729190610fea565b908152602001604051809103902060009054906101000a900460ff1615151461032c57600073__IterableMapping_______________________639e3e3102909188886040518463ffffffff1660e01b81526004016101d3939291906110c7565b60006040518083038186803b1580156101eb57600080fd5b505af41580156101ff573d6000803e3d6000fd5b50505050816008866040516102149190610fea565b908152602001604051809103902060008201518160000160006101000a81548173ffffffffffffffffffffffffffffffffffffffff021916908373ffffffffffffffffffffffffffffffffffffffff1602179055506020820151816001019080519060200190610285929190610b14565b5060408201518160020190805190602001906102a2929190610b14565b5060608201518160030190805190602001906102bf929190610b14565b506080820151816004015560a08201518160050160006101000a81548160ff02191690831515021790555060c0820151816006019080519060200190610306929190610b14565b5060e0820151816007019080519060200190610323929190610b14565b50905050610331565b600090505b60008073__IterableMapping_______________________63deb3d89690916040518263ffffffff1660e01b815260040161036c91906110ac565b60206040518083038186803b15801561038457600080fd5b505af4158015610398573d6000803e3d6000fd5b505050506040513d601f19601f820116820180604052508101906103bc9190610dde565b90507fc53cbeeb83f1a2c88b23b15611a1ee1fe23f7212bdb4aff2c9d1b71e5d8ded298783836040516103f193929190611001565b60405180910390a150505050505050565b60606000600101828154811061041b5761041a6113f5565b5b906000526020600020018054610430906112d1565b80601f016020809104026020016040519081016040528092919081815260200182805461045c906112d1565b80156104a95780601f1061047e576101008083540402835291602001916104a9565b820191906000526020600020905b81548152906001019060200180831161048c57829003601f168201915b50505050509050919050565b60606000600190506000600290506000600390506000600490506000600590506000600167ffffffffffffffff8111156104f2576104f1611424565b5b6040519080825280602002602001820160405280156105205781602001602082028036833780820191505090505b5090508581600081518110610538576105376113f5565b5b6020026020010181815250508481600181518110610559576105586113f5565b5b60200260200101818152505080965050505050505090565b60008060009050606060005b600073__IterableMapping_______________________63deb3d89690916040518263ffffffff1660e01b81526004016105b791906110ac565b60206040518083038186803b1580156105cf57600080fd5b505af41580156105e3573d6000803e3d6000fd5b505050506040513d601f19601f820116820180604052508101906106079190610dde565b81101561073e5760008073__IterableMapping_______________________63d1aa9e7e9091846040518363ffffffff1660e01b815260040161064b929190611105565b60206040518083038186803b15801561066357600080fd5b505af4158015610677573d6000803e3d6000fd5b505050506040513d601f19601f8201168201806040525081019061069b9190610cc9565b90508573ffffffffffffffffffffffffffffffffffffffff168173ffffffffffffffffffffffffffffffffffffffff16141561070457818383815181106106e5576106e46113f5565b5b60200260200101818152505083806106fc9061134e565b94505061072a565b6006838381518110610719576107186113f5565b5b602002602001018181525050600a93505b5080806107369061134e565b91505061057d565b508192505050919050565b60006006805490509050600081111561076b576006600061076a9190610b9a565b5b60005b600073__IterableMapping_______________________63deb3d89690916040518263ffffffff1660e01b81526004016107a891906110ac565b60206040518083038186803b1580156107c057600080fd5b505af41580156107d4573d6000803e3d6000fd5b505050506040513d601f19601f820116820180604052508101906107f89190610dde565b81101561089c57600060030160008473ffffffffffffffffffffffffffffffffffffffff1673ffffffffffffffffffffffffffffffffffffffff16815260200190815260200160002054600060020160008381526020019081526020016000205414156108895760068190806001815401808255809150506001900390600052602060002001600090919091909150555b80806108949061134e565b91505061076e565b50600060068054905090507fd143c9ceb3af6830e232ca21b936d1817fffc322f88d5346424f8033770d58456006826040516108d992919061105a565b60405180910390a1505050565b60606000606060005b600073__IterableMapping_______________________63deb3d89690916040518263ffffffff1660e01b815260040161092991906110ac565b60206040518083038186803b15801561094157600080fd5b505af4158015610955573d6000803e3d6000fd5b505050506040513d601f19601f820116820180604052508101906109799190610dde565b811015610aac5760008073__IterableMapping_______________________63d1aa9e7e9091846040518363ffffffff1660e01b81526004016109bd929190611105565b60206040518083038186803b1580156109d557600080fd5b505af41580156109e9573d6000803e3d6000fd5b505050506040513d601f19601f82011682018060405250810190610a0d9190610cc9565b90508573ffffffffffffffffffffffffffffffffffffffff168173ffffffffffffffffffffffffffffffffffffffff161415610a765781838381518110610a5757610a566113f5565b5b6020026020010181815250508380610a6e9061134e565b945050610a98565b6006838381518110610a8b57610a8a6113f5565b5b6020026020010181815250505b508080610aa49061134e565b9150506108ef565b508092505050919050565b604051806101000160405280600073ffffffffffffffffffffffffffffffffffffffff1681526020016060815260200160608152602001606081526020016000815260200160001515815260200160608152602001606081525090565b828054610b20906112d1565b90600052602060002090601f016020900481019282610b425760008555610b89565b82601f10610b5b57805160ff1916838001178555610b89565b82800160010185558215610b89579182015b82811115610b88578251825591602001919060010190610b6d565b5b509050610b969190610bbb565b5090565b5080546000825590600052602060002090810190610bb89190610bbb565b50565b5b80821115610bd4576000816000905550600101610bbc565b5090565b6000610beb610be68461116e565b611149565b905082815260208101848484011115610c0757610c0661146b565b5b610c1284828561128f565b509392505050565b600081359050610c2981611498565b92915050565b600081519050610c3e81611498565b92915050565b600082601f830112610c5957610c58611466565b5b8135610c69848260208601610bd8565b91505092915050565b600081359050610c81816114af565b92915050565b600081519050610c96816114af565b92915050565b600060208284031215610cb257610cb1611475565b5b6000610cc084828501610c1a565b91505092915050565b600060208284031215610cdf57610cde611475565b5b6000610ced84828501610c2f565b91505092915050565b60008060008060808587031215610d1057610d0f611475565b5b6000610d1e87828801610c1a565b945050602085013567ffffffffffffffff811115610d3f57610d3e611470565b5b610d4b87828801610c44565b935050604085013567ffffffffffffffff811115610d6c57610d6b611470565b5b610d7887828801610c44565b925050606085013567ffffffffffffffff811115610d9957610d98611470565b5b610da587828801610c44565b91505092959194509250565b600060208284031215610dc757610dc6611475565b5b6000610dd584828501610c72565b91505092915050565b600060208284031215610df457610df3611475565b5b6000610e0284828501610c87565b91505092915050565b6000610e178383610fbd565b60208301905092915050565b610e2c81611247565b82525050565b610e3b81611247565b82525050565b6000610e4c826111c4565b610e5681856111ff565b9350610e618361119f565b8060005b83811015610e92578151610e798882610e0b565b9750610e84836111e5565b925050600181019050610e65565b5085935050505092915050565b6000610eaa826111cf565b610eb481856111ff565b9350610ebf836111af565b8060005b83811015610ef757610ed482611453565b610ede8882610e0b565b9750610ee9836111f2565b925050600181019050610ec3565b5085935050505092915050565b610f0d81611259565b82525050565b6000610f1e826111da565b610f288185611210565b9350610f3881856020860161129e565b610f418161147a565b840191505092915050565b6000610f57826111da565b610f618185611221565b9350610f7181856020860161129e565b610f7a8161147a565b840191505092915050565b6000610f90826111da565b610f9a8185611232565b9350610faa81856020860161129e565b80840191505092915050565b8082525050565b610fc681611285565b82525050565b610fd581611285565b82525050565b610fe481611285565b82525050565b6000610ff68284610f85565b915081905092915050565b60006060820190506110166000830186610e23565b6110236020830185610f04565b6110306040830184610fcc565b949350505050565b600060208201905081810360008301526110528184610e41565b905092915050565b600060408201905081810360008301526110748185610e9f565b90506110836020830184610fcc565b9392505050565b600060208201905081810360008301526110a48184610f13565b905092915050565b60006020820190506110c16000830184610fb6565b92915050565b60006060820190506110dc6000830186610fb6565b6110e96020830185610e32565b81810360408301526110fb8184610f4c565b9050949350505050565b600060408201905061111a6000830185610fb6565b6111276020830184610fdb565b9392505050565b60006020820190506111436000830184610fcc565b92915050565b6000611153611164565b905061115f828261131d565b919050565b6000604051905090565b600067ffffffffffffffff82111561118957611188611424565b5b6111928261147a565b9050602081019050919050565b6000819050602082019050919050565b60008190508160005260206000209050919050565b600081519050919050565b600081549050919050565b600081519050919050565b6000602082019050919050565b6000600182019050919050565b600082825260208201905092915050565b600082825260208201905092915050565b600082825260208201905092915050565b600081905092915050565b6000819050919050565b600061125282611265565b9050919050565b60008115159050919050565b600073ffffffffffffffffffffffffffffffffffffffff82169050919050565b6000819050919050565b82818337600083830152505050565b60005b838110156112bc5780820151818401526020810190506112a1565b838111156112cb576000848401525b50505050565b600060028204905060018216806112e957607f821691505b602082108114156112fd576112fc6113c6565b5b50919050565b60006113166113118361148b565b61123d565b9050919050565b6113268261147a565b810181811067ffffffffffffffff8211171561134557611344611424565b5b80604052505050565b600061135982611285565b91507fffffffffffffffffffffffffffffffffffffffffffffffffffffffffffffffff82141561138c5761138b611397565b5b600182019050919050565b7f4e487b7100000000000000000000000000000000000000000000000000000000600052601160045260246000fd5b7f4e487b7100000000000000000000000000000000000000000000000000000000600052602260045260246000fd5b7f4e487b7100000000000000000000000000000000000000000000000000000000600052603260045260246000fd5b7f4e487b7100000000000000000000000000000000000000000000000000000000600052604160045260246000fd5b600061145f8254611303565b9050919050565b600080fd5b600080fd5b600080fd5b600080fd5b6000601f19601f8301169050919050565b60008160001c9050919050565b6114a181611247565b81146114ac57600080fd5b50565b6114b881611285565b81146114c357600080fd5b5056fea264697066735822122000e127b937985b8bd3c06b3dc2a217447198dc8cffb63418df063f29a0c375e164736f6c63430008070033",
  "immutableReferences": {},
  "source": "pragma solidity >=0.4.22 <0.9.0;\r\npragma experimental ABIEncoderV2;\r\n\r\n//import {IterableMapping} from \"./IterableMapping.sol\";\r\n//import {AccessControl} from \"../node_modules/openzeppelin-solidity/contracts/access/AccessControl.sol\";\r\nimport   './IterableMapping.sol';\r\n//import {User} from './User.sol';\r\n\r\n\r\n\r\ncontract FormIpfs{\r\n\r\n\r\n    using IterableMapping for IterableMapping.Map;\r\n    IterableMapping.Map private map;\r\n\r\n    struct FormStruct{\r\n\r\n          address userAddress;\r\n          string fileName;\r\n          //string fileType;\r\n          string fileHash;\r\n          string fileTime;\r\n          //string version;\r\n          uint   index;\r\n          bool   isValid;\r\n\r\n          string startTime; //\r\n          string postcode; //\r\n\r\n    }\r\n\r\n\r\n  //  string[] private photoSet;\r\n\r\n    uint[] indexSet; //\r\n  //  address[] addrSet;\r\n\r\n    mapping(address =>FormStruct) addressToStruct;\r\n    mapping(string =>FormStruct)  hashToStruct;\r\n\r\n   \r\n\r\n    event StorageE(address ad,bool flag,uint msize); \r\n    event StorageU(uint[] testSet,uint hsize); \r\n\r\n\r\n//\r\n    function storeHash(address _addr,string memory _fileHash,string memory _fileName,string memory _fileTime) public {\r\n\r\n        FormStruct memory ps;\r\n\r\n        bool returnFlag =true;\r\n\r\n        //hash\r\n        if(map.insertedHash[_fileHash]!=true){ //hash\r\n\r\n           //   ps= FormStruct(_addr,_fileName,_fileHash,_fileTime,map.size(),true);\r\n              map.set(_addr, _fileHash);                        \r\n              hashToStruct[_fileHash]=ps;\r\n        }else{       //Hash,\r\n          returnFlag = false;\r\n        }\r\n     \r\n        uint msize =  map.size();\r\n        emit StorageE(_addr,returnFlag,msize);\r\n\r\n    }\r\n\r\n//address\r\n   function showList(address _addr) public{\r\n\r\n\r\n   //\r\n    uint len=indexSet.length; \r\n    if(len >0){\r\n      delete indexSet;\r\n    }\r\n\r\n\r\n    for (uint i=0;i<map.size();i++){\r\n\r\n           if(map.values[i]==map.indexOf[_addr]){\r\n                indexSet.push(i);\r\n           }\r\n   }\r\n\r\n      uint hsize = indexSet.length;\r\n\r\n      emit StorageU(indexSet,hsize);\r\n  \r\n  }\r\n\r\n   function getHashByPid(uint _pid)public view returns(string memory){\r\n         return map.hashs[_pid] ;\r\n  }\r\n \r\n\r\n\r\n    //  function hasAddress(address _addr)public view returns(bool) {\r\n    //       if(addressToStruct[_addr].isValid!=true){\r\n    //           return true;\r\n    //       }else{\r\n    //           return false;\r\n    //       }\r\n\r\n    // }\r\n\r\n\r\n    //  function getAddressByHash(string memory newhash)public view returns(address){\r\n    //    return hashToAddress[newhash];\r\n    //  }\r\n\r\n \r\n\r\n    //  function getHashByAddress(address _addr)public view returns(string memory){\r\n    //    return addressToStruct[_addr].fileHash;\r\n    //  }\r\n     \r\n\r\n    \r\n\r\n    // function getHashByUid(uint uid) public view returns(string memory){\r\n    //     uint pid = uIdToPid[uid];\r\n    //     string memory phash= photoSet[pid];\r\n    //     return phash;\r\n    // }\r\n\r\n\r\n\r\n\r\n \r\n\r\n   \r\n\r\n  function sum0(address _addr) public view returns  (uint[] memory)\r\n  {\r\n  \r\n  uint s=0;\r\n  uint[] memory temp;\r\n        for (uint i = 0; i < map.size(); i++) {\r\n\r\n            address key = map.getKeyAtIndex(i);\r\n           // uint vv=map.get(key) ;\r\n\r\n            if(key==_addr){\r\n            temp[i]=uint(i);\r\n            s++;\r\n        }else{\r\n          temp[i]=uint(6);\r\n        }\r\n      \r\n        }\r\n\r\n    return temp;\r\n  }\r\n\r\nfunction sum1() public pure returns  (uint[] memory)\r\n  {\r\n  \r\n uint a=1;\r\n uint b=2;\r\n uint c=3;\r\n uint d=4;\r\n uint e=5;\r\n\r\nuint[] memory temp =new uint[](1) ;\r\n  temp[0] = a;\r\n  temp[1] = b;     \r\n\r\n    return temp;\r\n  }\r\n\r\n   function sum2(address _addr) public view returns  (uint )\r\n  {\r\n  \r\n  uint s=0;\r\n  //uint count=0;\r\n  uint[] memory temp;\r\n        for (uint i = 0; i < map.size(); i++) {\r\n\r\n            address key = map.getKeyAtIndex(i);\r\n           // uint vv=map.get(key) ;\r\n\r\n            if(key==_addr){\r\n            temp[i]=uint(i);\r\n            s++;\r\n        }else{\r\n          temp[i]=uint(6);\r\n          s=10;\r\n        }\r\n      \r\n        }\r\n\r\n    return s;\r\n  }\r\n\r\n/**************\r\n   function sum5() public\r\n  {\r\n    //indexSet.push()\r\n    uint len=indexSet.length;\r\n\r\n    if(len >0){\r\n      // for (uint c=0;c<len;c++){\r\n      //   indexSet[c] =  indexSet[c+1];\r\n      // }\r\n\r\n      delete indexSet;\r\n      indexSet.push(uint(8));\r\n\r\n    }else{\r\n           for(uint i=0;i<uint(5);i++){        \r\n          //indexSet[i]=0;\r\n           indexSet.push(uint(6));\r\n    }\r\n    }\r\n\r\n    emit StorageU(indexSet);\r\n\r\n    // return indexSet;\r\n\r\n    \r\n  }\r\n\r\n******************/\r\n     // function hasHash(string memory ipfsHash)public view returns(bool) {\r\n    //       if(hashToStruct[ipfsHash].isValid!=true){ //true\r\n    //           return true;\r\n    //       }else{\r\n    //           return false;\r\n    //       }\r\n\r\n    // }\r\n\r\n\r\n\r\n\r\n\r\n}",
  "sourcePath": "D:/WinForDev/project/testpetshop/contracts/FormIpfs.sol",
  "compiler": {
    "name": "solc",
    "version": "0.8.7+commit.e28d00a7.Emscripten.clang"
  },
  "schemaVersion": "3.3.4",
  "updatedAt": "2021-09-09T12:43:05.218Z",
  "devdoc": {
    "kind": "dev",
    "methods": {},
    "version": 1
  },
  "userdoc": {
    "kind": "user",
    "methods": {},
    "version": 1
  }
}