{
  "contractName": "HealthInfo",
  "abi": [
    {
      "anonymous": false,
      "inputs": [
        {
          "indexed": false,
          "internalType": "uint256[]",
          "name": "uintSet",
          "type": "uint256[]"
        },
        {
          "indexed": false,
          "internalType": "string[]",
          "name": "strSet",
          "type": "string[]"
        }
      ],
      "name": "ShowList",
      "type": "event"
    },
    {
      "anonymous": false,
      "inputs": [
        {
          "indexed": false,
          "internalType": "uint256",
          "name": "t0",
          "type": "uint256"
        }
      ],
      "name": "StorageF",
      "type": "event"
    },
    {
      "inputs": [
        {
          "internalType": "address",
          "name": "_ad",
          "type": "address"
        },
        {
          "internalType": "uint256[6]",
          "name": "_sym",
          "type": "uint256[6]"
        },
        {
          "internalType": "string",
          "name": "_stime",
          "type": "string"
        },
        {
          "internalType": "string",
          "name": "_pcode",
          "type": "string"
        }
      ],
      "name": "addHealth",
      "outputs": [],
      "stateMutability": "nonpayable",
      "type": "function"
    },
    {
      "inputs": [
        {
          "internalType": "address",
          "name": "_ad",
          "type": "address"
        }
      ],
      "name": "findSym",
      "outputs": [
        {
          "internalType": "uint256",
          "name": "",
          "type": "uint256"
        }
      ],
      "stateMutability": "view",
      "type": "function"
    },
    {
      "inputs": [
        {
          "internalType": "uint256",
          "name": "id",
          "type": "uint256"
        }
      ],
      "name": "findById",
      "outputs": [
        {
          "internalType": "string",
          "name": "",
          "type": "string"
        },
        {
          "internalType": "uint256[6]",
          "name": "",
          "type": "uint256[6]"
        },
        {
          "internalType": "string",
          "name": "",
          "type": "string"
        }
      ],
      "stateMutability": "view",
      "type": "function"
    },
    {
      "inputs": [
        {
          "internalType": "address",
          "name": "_ad",
          "type": "address"
        }
      ],
      "name": "showList",
      "outputs": [],
      "stateMutability": "nonpayable",
      "type": "function"
    }
  ],
  "bytecode": "0x608060405234801561001057600080fd5b5061142c806100206000396000f3fe608060405234801561001057600080fd5b506004361061004c5760003560e01c80639a64a27614610051578063d4bd094c14610083578063dcd4011d146100b3578063e2f1abc6146100cf575b600080fd5b61006b60048036038101906100669190610d15565b6100eb565b60405161007a93929190610fac565b60405180910390f35b61009d60048036038101906100989190610c47565b61031a565b6040516100aa9190610ff2565b60405180910390f35b6100cd60048036038101906100c89190610c47565b6103c4565b005b6100e960048036038101906100e49190610c74565b61055c565b005b60606100f561088f565b60606000600460008681526020019081526020016000206040518060c00160405290816000820160009054906101000a900473ffffffffffffffffffffffffffffffffffffffff1673ffffffffffffffffffffffffffffffffffffffff1673ffffffffffffffffffffffffffffffffffffffff16815260200160018201805461017d906111fc565b80601f01602080910402602001604051908101604052809291908181526020018280546101a9906111fc565b80156101f65780601f106101cb576101008083540402835291602001916101f6565b820191906000526020600020905b8154815290600101906020018083116101d957829003601f168201915b505050505081526020016002820160068060200260405190810160405280929190826006801561023b576020028201915b815481526020019060010190808311610227575b50505050508152602001600882018054610254906111fc565b80601f0160208091040260200160405190810160405280929190818152602001828054610280906111fc565b80156102cd5780601f106102a2576101008083540402835291602001916102cd565b820191906000526020600020905b8154815290600101906020018083116102b057829003601f168201915b5050505050815260200160098201548152602001600a820160009054906101000a900460ff1615151515815250509050806020015181604001518260600151935093509350509193909250565b600080600360008473ffffffffffffffffffffffffffffffffffffffff1673ffffffffffffffffffffffffffffffffffffffff168152602001908152602001600020600201600680602002604051908101604052809291908260068015610396576020028201915b815481526020019060010190808311610382575b505050505090506000816000600681106103b3576103b2611320565b5b602002015190508092505050919050565b60008080549050905060008111156103f2576000806103e391906108b1565b600160006103f191906108d2565b5b60005b60028054905081101561051c578273ffffffffffffffffffffffffffffffffffffffff166002828154811061042d5761042c611320565b5b90600052602060002090600b020160000160009054906101000a900473ffffffffffffffffffffffffffffffffffffffff1673ffffffffffffffffffffffffffffffffffffffff1614156105095760008190806001815401808255809150506001900390600052602060002001600090919091909150556001600282815481106104ba576104b9611320565b5b90600052602060002090600b0201600101908060018154018082558091505060019003906000526020600020016000909190919091509080546104fc906111fc565b6105079291906108f3565b505b808061051490611279565b9150506103f5565b507f6ba2081a99b1873880faae823a07c25733e11c886050ff055198615bb5fe512060006001604051610550929190610f75565b60405180910390a15050565b610564610980565b600060028054905090506040518060c001604052808773ffffffffffffffffffffffffffffffffffffffff16815260200185815260200186815260200184815260200182815260200160011515815250915060028290806001815401808255809150506001900390600052602060002090600b020160009091909190915060008201518160000160006101000a81548173ffffffffffffffffffffffffffffffffffffffff021916908373ffffffffffffffffffffffffffffffffffffffff16021790555060208201518160010190805190602001906106459291906109d4565b5060408201518160020190600661065d929190610a5a565b50606082015181600801908051906020019061067a9291906109d4565b506080820151816009015560a082015181600a0160006101000a81548160ff021916908315150217905550505081600360008873ffffffffffffffffffffffffffffffffffffffff1673ffffffffffffffffffffffffffffffffffffffff16815260200190815260200160002060008201518160000160006101000a81548173ffffffffffffffffffffffffffffffffffffffff021916908373ffffffffffffffffffffffffffffffffffffffff160217905550602082015181600101908051906020019061074a9291906109d4565b50604082015181600201906006610762929190610a5a565b50606082015181600801908051906020019061077f9291906109d4565b506080820151816009015560a082015181600a0160006101000a81548160ff021916908315150217905550905050816004600083815260200190815260200160002060008201518160000160006101000a81548173ffffffffffffffffffffffffffffffffffffffff021916908373ffffffffffffffffffffffffffffffffffffffff16021790555060208201518160010190805190602001906108249291906109d4565b5060408201518160020190600661083c929190610a5a565b5060608201518160080190805190602001906108599291906109d4565b506080820151816009015560a082015181600a0160006101000a81548160ff021916908315150217905550905050505050505050565b6040518060c00160405280600690602082028036833780820191505090505090565b50805460008255906000526020600020908101906108cf9190610a9a565b50565b50805460008255906000526020600020908101906108f09190610ab7565b50565b8280546108ff906111fc565b90600052602060002090601f016020900481019282610921576000855561096f565b82601f10610932578054855561096f565b8280016001018555821561096f57600052602060002091601f016020900482015b8281111561096e578254825591600101919060010190610953565b5b50905061097c9190610a9a565b5090565b6040518060c00160405280600073ffffffffffffffffffffffffffffffffffffffff168152602001606081526020016109b761088f565b815260200160608152602001600081526020016000151581525090565b8280546109e0906111fc565b90600052602060002090601f016020900481019282610a025760008555610a49565b82601f10610a1b57805160ff1916838001178555610a49565b82800160010185558215610a49579182015b82811115610a48578251825591602001919060010190610a2d565b5b509050610a569190610a9a565b5090565b8260068101928215610a89579160200282015b82811115610a88578251825591602001919060010190610a6d565b5b509050610a969190610a9a565b5090565b5b80821115610ab3576000816000905550600101610a9b565b5090565b5b80821115610ad75760008181610ace9190610adb565b50600101610ab8565b5090565b508054610ae7906111fc565b6000825580601f10610af95750610b18565b601f016020900490600052602060002090810190610b179190610a9a565b5b50565b6000610b2e610b2984611032565b61100d565b90508082856020860282011115610b4857610b47611396565b5b60005b85811015610b785781610b5e8882610c32565b845260208401935060208301925050600181019050610b4b565b5050509392505050565b6000610b95610b9084611058565b61100d565b905082815260208101848484011115610bb157610bb061139b565b5b610bbc8482856111ba565b509392505050565b600081359050610bd3816113c8565b92915050565b600082601f830112610bee57610bed611391565b5b6006610bfb848285610b1b565b91505092915050565b600082601f830112610c1957610c18611391565b5b8135610c29848260208601610b82565b91505092915050565b600081359050610c41816113df565b92915050565b600060208284031215610c5d57610c5c6113a5565b5b6000610c6b84828501610bc4565b91505092915050565b6000806000806101208587031215610c8f57610c8e6113a5565b5b6000610c9d87828801610bc4565b9450506020610cae87828801610bd9565b93505060e085013567ffffffffffffffff811115610ccf57610cce6113a0565b5b610cdb87828801610c04565b92505061010085013567ffffffffffffffff811115610cfd57610cfc6113a0565b5b610d0987828801610c04565b91505092959194509250565b600060208284031215610d2b57610d2a6113a5565b5b6000610d3984828501610c32565b91505092915050565b6000610d4e8383610ed7565b905092915050565b6000610d628383610f57565b60208301905092915050565b6000610d79826110d2565b610d838185611125565b935083602082028501610d9585611089565b8060005b85811015610dd057848403895281610db18582610d42565b9450610dbc836110fe565b925060208a01995050600181019050610d99565b50829750879550505050505092915050565b610deb816110dd565b610df58184611136565b9250610e008261109e565b8060005b83811015610e31578151610e188782610d56565b9650610e238361110b565b925050600181019050610e04565b505050505050565b6000610e44826110e8565b610e4e8185611141565b9350610e59836110a8565b8060005b83811015610e9157610e6e8261137e565b610e788882610d56565b9750610e8383611118565b925050600181019050610e5d565b5085935050505092915050565b6000610ea9826110f3565b610eb38185611163565b9350610ec38185602086016111c9565b610ecc816113aa565b840191505092915050565b60008154610ee4816111fc565b610eee8186611152565b94506001821660008114610f095760018114610f1b57610f4e565b60ff1983168652602086019350610f4e565b610f24856110bd565b60005b83811015610f4657815481890152600182019150602081019050610f27565b808801955050505b50505092915050565b610f60816111b0565b82525050565b610f6f816111b0565b82525050565b60006040820190508181036000830152610f8f8185610e39565b90508181036020830152610fa38184610d6e565b90509392505050565b6000610100820190508181036000830152610fc78186610e9e565b9050610fd66020830185610de2565b81810360e0830152610fe88184610e9e565b9050949350505050565b60006020820190506110076000830184610f66565b92915050565b6000611017611028565b90506110238282611248565b919050565b6000604051905090565b600067ffffffffffffffff82111561104d5761104c61134f565b5b602082029050919050565b600067ffffffffffffffff8211156110735761107261134f565b5b61107c826113aa565b9050602081019050919050565b60008190508160005260206000209050919050565b6000819050919050565b60008190508160005260206000209050919050565b60008190508160005260206000209050919050565b600081549050919050565b600060069050919050565b600081549050919050565b600081519050919050565b6000600182019050919050565b6000602082019050919050565b6000600182019050919050565b600082825260208201905092915050565b600081905092915050565b600082825260208201905092915050565b600082825260208201905092915050565b600082825260208201905092915050565b6000819050919050565b600061118982611190565b9050919050565b600073ffffffffffffffffffffffffffffffffffffffff82169050919050565b6000819050919050565b82818337600083830152505050565b60005b838110156111e75780820151818401526020810190506111cc565b838111156111f6576000848401525b50505050565b6000600282049050600182168061121457607f821691505b60208210811415611228576112276112f1565b5b50919050565b600061124161123c836113bb565b611174565b9050919050565b611251826113aa565b810181811067ffffffffffffffff821117156112705761126f61134f565b5b80604052505050565b6000611284826111b0565b91507fffffffffffffffffffffffffffffffffffffffffffffffffffffffffffffffff8214156112b7576112b66112c2565b5b600182019050919050565b7f4e487b7100000000000000000000000000000000000000000000000000000000600052601160045260246000fd5b7f4e487b7100000000000000000000000000000000000000000000000000000000600052602260045260246000fd5b7f4e487b7100000000000000000000000000000000000000000000000000000000600052603260045260246000fd5b7f4e487b7100000000000000000000000000000000000000000000000000000000600052604160045260246000fd5b600061138a825461122e565b9050919050565b600080fd5b600080fd5b600080fd5b600080fd5b600080fd5b6000601f19601f8301169050919050565b60008160001c9050919050565b6113d18161117e565b81146113dc57600080fd5b50565b6113e8816111b0565b81146113f357600080fd5b5056fea264697066735822122045152110069cd51236f8966cc89f1fabbfe8e2213192a42a1fbefd8c6a59460464736f6c63430008070033",
  "immutableReferences": {},
  "source": "pragma solidity >=0.4.22 <0.9.0;\r\npragma experimental ABIEncoderV2;\r\n\r\n//import {IterableMapping} from \"./IterableMapping.sol\";\r\n//import {AccessControl} from \"../node_modules/openzeppelin-solidity/contracts/access/AccessControl.sol\";\r\n//import   './IterableMapping.sol';\r\n//import {User} from './User.sol';\r\n\r\n\r\n\r\ncontract HealthInfo{\r\n\r\n\r\n   // using IterableMapping for IterableMapping.Map;\r\n  //  IterableMapping.Map private map;\r\n\r\n    struct HealthStruct{\r\n\r\n          address userAddress;\r\n          string startTime; //\r\n          uint[6] symSet; //\r\n          string bodyTemp;//       \r\n          uint index;\r\n          bool   isValid;\r\n          \r\n          \r\n\r\n    }\r\n\r\n    uint[] indexSet; //\r\n    string[] stringSet; //\r\n    HealthStruct[] private healthSet;\r\n\r\n  //  address[] addrSet;\r\n\r\n    mapping(address =>HealthStruct) addressToStruct;\r\n    mapping(uint =>HealthStruct)  indexToStruct;\r\n\r\n   \r\n\r\n    event StorageF(uint t0); \r\n    event ShowList(uint[] uintSet, string[] strSet); \r\n    \r\n\r\n\r\n\r\n//\r\nfunction addHealth(address _ad,uint[6] memory _sym,string memory _stime, string memory _pcode)public {\r\n  HealthStruct memory hs;\r\n  uint index= healthSet.length;\r\n  hs= HealthStruct(_ad,_stime,_sym,_pcode,index,true);\r\n\r\n  healthSet.push(hs);\r\n\r\n\r\n\r\n  //uint t0= hs.symSet[0];\r\n\r\n  addressToStruct[_ad]=hs;\r\n  indexToStruct[index]=hs;\r\n\r\n  //emit StorageF(t0);\r\n  \r\n}\r\n// \r\nfunction findSym(address _ad) public view returns(uint){\r\n    uint[6] memory tset=addressToStruct[_ad].symSet;\r\n    uint t0 = tset[0];\r\n\r\n    return t0;\r\n}\r\n\r\nfunction findById(uint id) public view returns(string memory,uint[6] memory,string memory){\r\n    HealthStruct memory hs=indexToStruct[id];\r\n\r\n    return (hs.startTime,hs.symSet,hs.bodyTemp);\r\n}\r\n\r\nfunction showList(address _ad)public{\r\n\r\n  uint len=indexSet.length; \r\n    if(len >0){\r\n      delete indexSet;\r\n      delete stringSet;\r\n    }\r\n\r\n    for(uint i=0;i<healthSet.length;i++){\r\n      if(healthSet[i].userAddress==_ad ){\r\n        indexSet.push(i);\r\n        stringSet.push(healthSet[i].startTime);\r\n      }\r\n    }\r\n\r\n  emit ShowList(indexSet,stringSet);\r\n\r\n}\r\n\r\n\r\n\r\n//\r\n/******************************** \r\n    function storeHash(address _addr,string memory _fileHash,string memory _fileName,string memory _fileTime) public {\r\n\r\n        FormStruct memory ps;\r\n\r\n        bool returnFlag =true;\r\n\r\n        //hash\r\n        if(map.insertedHash[_fileHash]!=true){ //hash\r\n\r\n           //   ps= FormStruct(_addr,_fileName,_fileHash,_fileTime,map.size(),true);\r\n              map.set(_addr, _fileHash);                        \r\n              hashToStruct[_fileHash]=ps;\r\n        }else{       //Hash,\r\n          returnFlag = false;\r\n        }\r\n     \r\n        uint msize =  map.size();\r\n        emit StorageE(_addr,returnFlag,msize);\r\n\r\n    }\r\n\r\n    ***************/\r\n\r\n//address\r\n/******************\r\n\r\n   function showList(address _addr) public{\r\n\r\n\r\n   //\r\n    uint len=indexSet.length; \r\n    if(len >0){\r\n      delete indexSet;\r\n    }\r\n\r\n\r\n    for (uint i=0;i<map.size();i++){\r\n\r\n           if(map.values[i]==map.indexOf[_addr]){\r\n                indexSet.push(i);\r\n           }\r\n   }\r\n\r\n      uint hsize = indexSet.length;\r\n\r\n      emit StorageU(indexSet,hsize);\r\n  \r\n  }\r\n\r\n  **************/\r\n/******************\r\n   function getHashByPid(uint _pid)public view returns(string memory){\r\n         return map.hashs[_pid] ;\r\n  }\r\n \r\n\r\n*************/\r\n    //  function hasAddress(address _addr)public view returns(bool) {\r\n    //       if(addressToStruct[_addr].isValid!=true){\r\n    //           return true;\r\n    //       }else{\r\n    //           return false;\r\n    //       }\r\n\r\n    // }\r\n\r\n\r\n    //  function getAddressByHash(string memory newhash)public view returns(address){\r\n    //    return hashToAddress[newhash];\r\n    //  }\r\n\r\n \r\n\r\n    //  function getHashByAddress(address _addr)public view returns(string memory){\r\n    //    return addressToStruct[_addr].fileHash;\r\n    //  }\r\n     \r\n\r\n    \r\n\r\n    // function getHashByUid(uint uid) public view returns(string memory){\r\n    //     uint pid = uIdToPid[uid];\r\n    //     string memory phash= photoSet[pid];\r\n    //     return phash;\r\n    // }\r\n\r\n\r\n\r\n\r\n \r\n\r\n   \r\n/********************** \r\n  function sum0(address _addr) public view returns  (uint[] memory)\r\n  {\r\n  \r\n  uint s=0;\r\n  uint[] memory temp;\r\n        for (uint i = 0; i < map.size(); i++) {\r\n\r\n            address key = map.getKeyAtIndex(i);\r\n           // uint vv=map.get(key) ;\r\n\r\n            if(key==_addr){\r\n            temp[i]=uint(i);\r\n            s++;\r\n        }else{\r\n          temp[i]=uint(6);\r\n        }\r\n      \r\n        }\r\n\r\n    return temp;\r\n  }\r\n****************/\r\n\r\n/************* \r\nfunction sum1() public pure returns  (uint[] memory)\r\n  {\r\n  \r\n uint a=1;\r\n uint b=2;\r\n uint c=3;\r\n uint d=4;\r\n uint e=5;\r\n\r\nuint[] memory temp =new uint[](1) ;\r\n  temp[0] = a;\r\n  temp[1] = b;     \r\n\r\n    return temp;\r\n  }\r\n\r\n   function sum2(address _addr) public view returns  (uint )\r\n  {\r\n  \r\n  uint s=0;\r\n  //uint count=0;\r\n  uint[] memory temp;\r\n        for (uint i = 0; i < map.size(); i++) {\r\n\r\n            address key = map.getKeyAtIndex(i);\r\n           // uint vv=map.get(key) ;\r\n\r\n            if(key==_addr){\r\n            temp[i]=uint(i);\r\n            s++;\r\n        }else{\r\n          temp[i]=uint(6);\r\n          s=10;\r\n        }\r\n      \r\n        }\r\n\r\n    return s;\r\n  }\r\n****************/\r\n/**************\r\n   function sum5() public\r\n  {\r\n    //indexSet.push()\r\n    uint len=indexSet.length;\r\n\r\n    if(len >0){\r\n      // for (uint c=0;c<len;c++){\r\n      //   indexSet[c] =  indexSet[c+1];\r\n      // }\r\n\r\n      delete indexSet;\r\n      indexSet.push(uint(8));\r\n\r\n    }else{\r\n           for(uint i=0;i<uint(5);i++){        \r\n          //indexSet[i]=0;\r\n           indexSet.push(uint(6));\r\n    }\r\n    }\r\n\r\n    emit StorageU(indexSet);\r\n\r\n    // return indexSet;\r\n\r\n    \r\n  }\r\n\r\n******************/\r\n     // function hasHash(string memory ipfsHash)public view returns(bool) {\r\n    //       if(hashToStruct[ipfsHash].isValid!=true){ //true\r\n    //           return true;\r\n    //       }else{\r\n    //           return false;\r\n    //       }\r\n\r\n    // }\r\n\r\n\r\n\r\n\r\n\r\n}",
  "sourcePath": "D:/WinForDev/project/testpetshop/contracts/HealthInfo.sol",
  "compiler": {
    "name": "solc",
    "version": "0.8.7+commit.e28d00a7.Emscripten.clang"
  },
  "schemaVersion": "3.3.4",
  "updatedAt": "2021-09-09T19:55:02.272Z",
  "devdoc": {
    "kind": "dev",
    "methods": {},
    "version": 1
  },
  "userdoc": {
    "kind": "user",
    "methods": {},
    "version": 1
  }
}