{
  "contractName": "InfoContract",
  "abi": [
    {
      "anonymous": false,
      "inputs": [
        {
          "indexed": false,
          "internalType": "string",
          "name": "name",
          "type": "string"
        },
        {
          "indexed": false,
          "internalType": "uint256",
          "name": "age",
          "type": "uint256"
        }
      ],
      "name": "Instructor",
      "type": "event"
    },
    {
      "inputs": [
        {
          "internalType": "string",
          "name": "_name",
          "type": "string"
        },
        {
          "internalType": "uint256",
          "name": "_age",
          "type": "uint256"
        }
      ],
      "name": "setInfo",
      "outputs": [],
      "stateMutability": "nonpayable",
      "type": "function"
    },
    {
      "inputs": [],
      "name": "getInfo",
      "outputs": [
        {
          "internalType": "string",
          "name": "",
          "type": "string"
        },
        {
          "internalType": "uint256",
          "name": "",
          "type": "uint256"
        }
      ],
      "stateMutability": "view",
      "type": "function",
      "constant": true
    }
  ],
  "bytecode": "0x608060405234801561001057600080fd5b50610622806100206000396000f3fe608060405234801561001057600080fd5b50600436106100365760003560e01c80635a9b0b891461003b5780638262963b1461005a575b600080fd5b610043610076565b6040516100519291906103bc565b60405180910390f35b610074600480360381019061006f9190610298565b610112565b005b606060008060015481805461008a906104ef565b80601f01602080910402602001604051908101604052809291908181526020018280546100b6906104ef565b80156101035780601f106100d857610100808354040283529160200191610103565b820191906000526020600020905b8154815290600101906020018083116100e657829003601f168201915b50505050509150915091509091565b8160009080519060200190610128929190610170565b50806001819055507f010becc10ca1475887c4ec429def1ccc2e9ea1713fe8b0d4e9a1d009042f6b8e60006001546040516101649291906103ec565b60405180910390a15050565b82805461017c906104ef565b90600052602060002090601f01602090048101928261019e57600085556101e5565b82601f106101b757805160ff19168380011785556101e5565b828001600101855582156101e5579182015b828111156101e45782518255916020019190600101906101c9565b5b5090506101f291906101f6565b5090565b5b8082111561020f5760008160009055506001016101f7565b5090565b600061022661022184610441565b61041c565b905082815260208101848484011115610242576102416105b5565b5b61024d8482856104ad565b509392505050565b600082601f83011261026a576102696105b0565b5b813561027a848260208601610213565b91505092915050565b600081359050610292816105d5565b92915050565b600080604083850312156102af576102ae6105bf565b5b600083013567ffffffffffffffff8111156102cd576102cc6105ba565b5b6102d985828601610255565b92505060206102ea85828601610283565b9150509250929050565b60006102ff82610487565b6103098185610492565b93506103198185602086016104bc565b610322816105c4565b840191505092915050565b6000815461033a816104ef565b6103448186610492565b9450600182166000811461035f5760018114610371576103a4565b60ff19831686526020860193506103a4565b61037a85610472565b60005b8381101561039c5781548189015260018201915060208101905061037d565b808801955050505b50505092915050565b6103b6816104a3565b82525050565b600060408201905081810360008301526103d681856102f4565b90506103e560208301846103ad565b9392505050565b60006040820190508181036000830152610406818561032d565b905061041560208301846103ad565b9392505050565b6000610426610437565b90506104328282610521565b919050565b6000604051905090565b600067ffffffffffffffff82111561045c5761045b610581565b5b610465826105c4565b9050602081019050919050565b60008190508160005260206000209050919050565b600081519050919050565b600082825260208201905092915050565b6000819050919050565b82818337600083830152505050565b60005b838110156104da5780820151818401526020810190506104bf565b838111156104e9576000848401525b50505050565b6000600282049050600182168061050757607f821691505b6020821081141561051b5761051a610552565b5b50919050565b61052a826105c4565b810181811067ffffffffffffffff8211171561054957610548610581565b5b80604052505050565b7f4e487b7100000000000000000000000000000000000000000000000000000000600052602260045260246000fd5b7f4e487b7100000000000000000000000000000000000000000000000000000000600052604160045260246000fd5b600080fd5b600080fd5b600080fd5b600080fd5b6000601f19601f8301169050919050565b6105de816104a3565b81146105e957600080fd5b5056fea2646970667358221220b7131e1abc494ba18a0a2a415d6a3db95d4525f4a062f8faec82296d3d9d9ff664736f6c63430008070033",
  "immutableReferences": {},
  "source": "pragma solidity >=0.4.22 <0.9.0;\n\ncontract InfoContract {\n    string name;\n    uint age;\n\n    event Instructor(string name, uint age);\n\n    function setInfo(string memory _name, uint _age) public {\n        name = _name;\n        age = _age;\n        emit Instructor(name, age);\n    }\n\n    function getInfo() public view returns(string memory, uint) {\n        return (name, age);\n    }\n}\n",
  "sourcePath": "D:/WinForDev/project/testpetshop/contracts/InfoContract.sol",
  "compiler": {
    "name": "solc",
    "version": "0.8.7+commit.e28d00a7.Emscripten.clang"
  },
  "schemaVersion": "3.3.4",
  "updatedAt": "2021-09-09T20:07:48.434Z",
  "networkType": "ethereum",
  "devdoc": {
    "kind": "dev",
    "methods": {},
    "version": 1
  },
  "userdoc": {
    "kind": "user",
    "methods": {},
    "version": 1
  }
}