{
  "contractName": "PersonalInfo",
  "abi": [
    {
      "anonymous": false,
      "inputs": [
        {
          "indexed": false,
          "internalType": "uint256[]",
          "name": "uintSet",
          "type": "uint256[]"
        },
        {
          "indexed": false,
          "internalType": "string[]",
          "name": "strSet",
          "type": "string[]"
        }
      ],
      "name": "ShowList",
      "type": "event"
    },
    {
      "anonymous": false,
      "inputs": [
        {
          "indexed": false,
          "internalType": "uint256",
          "name": "t0",
          "type": "uint256"
        }
      ],
      "name": "StorageF",
      "type": "event"
    },
    {
      "inputs": [
        {
          "internalType": "address",
          "name": "_ad",
          "type": "address"
        },
        {
          "internalType": "string",
          "name": "_contact",
          "type": "string"
        },
        {
          "internalType": "uint256",
          "name": "_age",
          "type": "uint256"
        },
        {
          "internalType": "string",
          "name": "_gender",
          "type": "string"
        },
        {
          "internalType": "uint256[4]",
          "name": "_bSet",
          "type": "uint256[4]"
        },
        {
          "internalType": "string",
          "name": "_pcode",
          "type": "string"
        }
      ],
      "name": "addPersonal",
      "outputs": [],
      "stateMutability": "nonpayable",
      "type": "function"
    },
    {
      "inputs": [
        {
          "internalType": "address",
          "name": "_ad",
          "type": "address"
        }
      ],
      "name": "findBasic",
      "outputs": [
        {
          "internalType": "uint256",
          "name": "",
          "type": "uint256"
        }
      ],
      "stateMutability": "view",
      "type": "function"
    },
    {
      "inputs": [
        {
          "internalType": "uint256",
          "name": "id",
          "type": "uint256"
        }
      ],
      "name": "findById",
      "outputs": [
        {
          "internalType": "string",
          "name": "",
          "type": "string"
        },
        {
          "internalType": "uint256[4]",
          "name": "",
          "type": "uint256[4]"
        },
        {
          "internalType": "string",
          "name": "",
          "type": "string"
        }
      ],
      "stateMutability": "view",
      "type": "function"
    },
    {
      "inputs": [
        {
          "internalType": "address",
          "name": "_ad",
          "type": "address"
        }
      ],
      "name": "showList",
      "outputs": [],
      "stateMutability": "nonpayable",
      "type": "function"
    }
  ],
  "bytecode": "0x608060405234801561001057600080fd5b506114ac806100206000396000f3fe608060405234801561001057600080fd5b506004361061004c5760003560e01c8063973c1b17146100515780639a64a2761461006d578063ba9388201461009f578063dcd4011d146100cf575b600080fd5b61006b60048036038101906100669190610cb3565b6100eb565b005b61008760048036038101906100829190610d96565b6104a2565b6040516100969392919061102d565b60405180910390f35b6100b960048036038101906100b49190610c86565b61076e565b6040516100c69190611072565b60405180910390f35b6100e960048036038101906100e49190610c86565b610818565b005b6100f361094c565b600060028054905090506040518061010001604052808973ffffffffffffffffffffffffffffffffffffffff16815260200188815260200184815260200186815260200187815260200185815260200182815260200160011515815250915060028290806001815401808255809150506001900390600052602060002090600b020160009091909190915060008201518160000160006101000a81548173ffffffffffffffffffffffffffffffffffffffff021916908373ffffffffffffffffffffffffffffffffffffffff16021790555060208201518160010190805190602001906101e19291906109af565b5060408201518160020190805190602001906101fe9291906109af565b50606082015181600301908051906020019061021b9291906109af565b506080820151816004015560a08201518160050190600461023d929190610a35565b5060c0820151816009015560e082015181600a0160006101000a81548160ff021916908315150217905550505081600360008a73ffffffffffffffffffffffffffffffffffffffff1673ffffffffffffffffffffffffffffffffffffffff16815260200190815260200160002060008201518160000160006101000a81548173ffffffffffffffffffffffffffffffffffffffff021916908373ffffffffffffffffffffffffffffffffffffffff160217905550602082015181600101908051906020019061030d9291906109af565b50604082015181600201908051906020019061032a9291906109af565b5060608201518160030190805190602001906103479291906109af565b506080820151816004015560a082015181600501906004610369929190610a35565b5060c0820151816009015560e082015181600a0160006101000a81548160ff021916908315150217905550905050816004600083815260200190815260200160002060008201518160000160006101000a81548173ffffffffffffffffffffffffffffffffffffffff021916908373ffffffffffffffffffffffffffffffffffffffff160217905550602082015181600101908051906020019061040e9291906109af565b50604082015181600201908051906020019061042b9291906109af565b5060608201518160030190805190602001906104489291906109af565b506080820151816004015560a08201518160050190600461046a929190610a35565b5060c0820151816009015560e082015181600a0160006101000a81548160ff0219169083151502179055509050505050505050505050565b60606104ac610a75565b6060600060046000868152602001908152602001600020604051806101000160405290816000820160009054906101000a900473ffffffffffffffffffffffffffffffffffffffff1673ffffffffffffffffffffffffffffffffffffffff1673ffffffffffffffffffffffffffffffffffffffff1681526020016001820180546105359061127c565b80601f01602080910402602001604051908101604052809291908181526020018280546105619061127c565b80156105ae5780601f10610583576101008083540402835291602001916105ae565b820191906000526020600020905b81548152906001019060200180831161059157829003601f168201915b505050505081526020016002820180546105c79061127c565b80601f01602080910402602001604051908101604052809291908181526020018280546105f39061127c565b80156106405780601f1061061557610100808354040283529160200191610640565b820191906000526020600020905b81548152906001019060200180831161062357829003601f168201915b505050505081526020016003820180546106599061127c565b80601f01602080910402602001604051908101604052809291908181526020018280546106859061127c565b80156106d25780601f106106a7576101008083540402835291602001916106d2565b820191906000526020600020905b8154815290600101906020018083116106b557829003601f168201915b505050505081526020016004820154815260200160058201600480602002604051908101604052809291908260048015610721576020028201915b81548152602001906001019080831161070d575b5050505050815260200160098201548152602001600a820160009054906101000a900460ff161515151581525050905080602001518160a001518260600151935093509350509193909250565b600080600360008473ffffffffffffffffffffffffffffffffffffffff1673ffffffffffffffffffffffffffffffffffffffff1681526020019081526020016000206005016004806020026040519081016040528092919082600480156107ea576020028201915b8154815260200190600101908083116107d6575b50505050509050600081600060048110610807576108066113a0565b5b602002015190508092505050919050565b6000808054905090506000811115610846576000806108379190610a97565b600160006108459190610ab8565b5b60005b60028054905081101561090c578273ffffffffffffffffffffffffffffffffffffffff1660028281548110610881576108806113a0565b5b90600052602060002090600b020160000160009054906101000a900473ffffffffffffffffffffffffffffffffffffffff1673ffffffffffffffffffffffffffffffffffffffff1614156108f95760008190806001815401808255809150506001900390600052602060002001600090919091909150555b8080610904906112f9565b915050610849565b507f6ba2081a99b1873880faae823a07c25733e11c886050ff055198615bb5fe512060006001604051610940929190610ff6565b60405180910390a15050565b604051806101000160405280600073ffffffffffffffffffffffffffffffffffffffff16815260200160608152602001606081526020016060815260200160008152602001610999610a75565b8152602001600081526020016000151581525090565b8280546109bb9061127c565b90600052602060002090601f0160209004810192826109dd5760008555610a24565b82601f106109f657805160ff1916838001178555610a24565b82800160010185558215610a24579182015b82811115610a23578251825591602001919060010190610a08565b5b509050610a319190610ad9565b5090565b8260048101928215610a64579160200282015b82811115610a63578251825591602001919060010190610a48565b5b509050610a719190610ad9565b5090565b6040518060800160405280600490602082028036833780820191505090505090565b5080546000825590600052602060002090810190610ab59190610ad9565b50565b5080546000825590600052602060002090810190610ad69190610af6565b50565b5b80821115610af2576000816000905550600101610ada565b5090565b5b80821115610b165760008181610b0d9190610b1a565b50600101610af7565b5090565b508054610b269061127c565b6000825580601f10610b385750610b57565b601f016020900490600052602060002090810190610b569190610ad9565b5b50565b6000610b6d610b68846110b2565b61108d565b90508082856020860282011115610b8757610b86611416565b5b60005b85811015610bb75781610b9d8882610c71565b845260208401935060208301925050600181019050610b8a565b5050509392505050565b6000610bd4610bcf846110d8565b61108d565b905082815260208101848484011115610bf057610bef61141b565b5b610bfb84828561123a565b509392505050565b600081359050610c1281611448565b92915050565b600082601f830112610c2d57610c2c611411565b5b6004610c3a848285610b5a565b91505092915050565b600082601f830112610c5857610c57611411565b5b8135610c68848260208601610bc1565b91505092915050565b600081359050610c808161145f565b92915050565b600060208284031215610c9c57610c9b611425565b5b6000610caa84828501610c03565b91505092915050565b6000806000806000806101208789031215610cd157610cd0611425565b5b6000610cdf89828a01610c03565b965050602087013567ffffffffffffffff811115610d0057610cff611420565b5b610d0c89828a01610c43565b9550506040610d1d89828a01610c71565b945050606087013567ffffffffffffffff811115610d3e57610d3d611420565b5b610d4a89828a01610c43565b9350506080610d5b89828a01610c18565b92505061010087013567ffffffffffffffff811115610d7d57610d7c611420565b5b610d8989828a01610c43565b9150509295509295509295565b600060208284031215610dac57610dab611425565b5b6000610dba84828501610c71565b91505092915050565b6000610dcf8383610f58565b905092915050565b6000610de38383610fd8565b60208301905092915050565b6000610dfa82611152565b610e0481856111a5565b935083602082028501610e1685611109565b8060005b85811015610e5157848403895281610e328582610dc3565b9450610e3d8361117e565b925060208a01995050600181019050610e1a565b50829750879550505050505092915050565b610e6c8161115d565b610e7681846111b6565b9250610e818261111e565b8060005b83811015610eb2578151610e998782610dd7565b9650610ea48361118b565b925050600181019050610e85565b505050505050565b6000610ec582611168565b610ecf81856111c1565b9350610eda83611128565b8060005b83811015610f1257610eef826113fe565b610ef98882610dd7565b9750610f0483611198565b925050600181019050610ede565b5085935050505092915050565b6000610f2a82611173565b610f3481856111e3565b9350610f44818560208601611249565b610f4d8161142a565b840191505092915050565b60008154610f658161127c565b610f6f81866111d2565b94506001821660008114610f8a5760018114610f9c57610fcf565b60ff1983168652602086019350610fcf565b610fa58561113d565b60005b83811015610fc757815481890152600182019150602081019050610fa8565b808801955050505b50505092915050565b610fe181611230565b82525050565b610ff081611230565b82525050565b600060408201905081810360008301526110108185610eba565b905081810360208301526110248184610def565b90509392505050565b600060c08201905081810360008301526110478186610f1f565b90506110566020830185610e63565b81810360a08301526110688184610f1f565b9050949350505050565b60006020820190506110876000830184610fe7565b92915050565b60006110976110a8565b90506110a382826112c8565b919050565b6000604051905090565b600067ffffffffffffffff8211156110cd576110cc6113cf565b5b602082029050919050565b600067ffffffffffffffff8211156110f3576110f26113cf565b5b6110fc8261142a565b9050602081019050919050565b60008190508160005260206000209050919050565b6000819050919050565b60008190508160005260206000209050919050565b60008190508160005260206000209050919050565b600081549050919050565b600060049050919050565b600081549050919050565b600081519050919050565b6000600182019050919050565b6000602082019050919050565b6000600182019050919050565b600082825260208201905092915050565b600081905092915050565b600082825260208201905092915050565b600082825260208201905092915050565b600082825260208201905092915050565b6000819050919050565b600061120982611210565b9050919050565b600073ffffffffffffffffffffffffffffffffffffffff82169050919050565b6000819050919050565b82818337600083830152505050565b60005b8381101561126757808201518184015260208101905061124c565b83811115611276576000848401525b50505050565b6000600282049050600182168061129457607f821691505b602082108114156112a8576112a7611371565b5b50919050565b60006112c16112bc8361143b565b6111f4565b9050919050565b6112d18261142a565b810181811067ffffffffffffffff821117156112f0576112ef6113cf565b5b80604052505050565b600061130482611230565b91507fffffffffffffffffffffffffffffffffffffffffffffffffffffffffffffffff82141561133757611336611342565b5b600182019050919050565b7f4e487b7100000000000000000000000000000000000000000000000000000000600052601160045260246000fd5b7f4e487b7100000000000000000000000000000000000000000000000000000000600052602260045260246000fd5b7f4e487b7100000000000000000000000000000000000000000000000000000000600052603260045260246000fd5b7f4e487b7100000000000000000000000000000000000000000000000000000000600052604160045260246000fd5b600061140a82546112ae565b9050919050565b600080fd5b600080fd5b600080fd5b600080fd5b600080fd5b6000601f19601f8301169050919050565b60008160001c9050919050565b611451816111fe565b811461145c57600080fd5b50565b61146881611230565b811461147357600080fd5b5056fea2646970667358221220659b9c18ed050bf20fd8141f728ed1acbac90cb690f712345307597b222fa56b64736f6c63430008070033",
  "immutableReferences": {},
  "source": "pragma solidity >=0.4.22 <0.9.0;\r\npragma experimental ABIEncoderV2;\r\n\r\n//import {IterableMapping} from \"./IterableMapping.sol\";\r\n//import {AccessControl} from \"../node_modules/openzeppelin-solidity/contracts/access/AccessControl.sol\";\r\n//import   './IterableMapping.sol';\r\n//import {User} from './User.sol';\r\n\r\n\r\n\r\ncontract PersonalInfo{\r\n\r\n\r\n   // using IterableMapping for IterableMapping.Map;\r\n  //  IterableMapping.Map private map;\r\n\r\n    struct PersonalStruct{\r\n\r\n          address userAddress;\r\n          string contact; //\r\n          string postcode; //\r\n          string gender; //\r\n          uint age; //\r\n          uint[4] basicSet; //\r\n          uint index;\r\n          bool   isValid;\r\n          \r\n          \r\n\r\n    }\r\n\r\n    uint[] indexSet; //\r\n    string[] stringSet; //\r\n    PersonalStruct[] private personalSet;\r\n\r\n  //  address[] addrSet;\r\n\r\n    mapping(address =>PersonalStruct) addressToStruct;\r\n    mapping(uint =>PersonalStruct)  indexToStruct;\r\n\r\n   \r\n\r\n    event StorageF(uint t0); \r\n    event ShowList(uint[] uintSet, string[] strSet); \r\n    \r\n\r\n\r\nfunction addPersonal(address _ad,string memory _contact,uint _age,string memory _gender,uint[4] memory _bSet, string memory _pcode)public {\r\n  PersonalStruct memory hs;\r\n  uint index= personalSet.length;\r\n  hs= PersonalStruct(_ad,_contact,_pcode,_gender,_age,_bSet,index,true);\r\n\r\n  personalSet.push(hs);\r\n\r\n\r\n\r\n  //uint t0= hs.symSet[0];\r\n\r\n  addressToStruct[_ad]=hs;\r\n  indexToStruct[index]=hs;\r\n\r\n  //emit StorageF(t0);\r\n  \r\n}\r\n// \r\nfunction findBasic(address _ad) public view returns(uint){\r\n    uint[4] memory tset=addressToStruct[_ad].basicSet;\r\n    uint t0 = tset[0];\r\n\r\n    return t0;\r\n}\r\n\r\nfunction findById(uint id) public view returns(string memory,uint[4] memory,string memory){\r\n    PersonalStruct memory hs=indexToStruct[id];\r\n\r\n    return (hs.contact,hs.basicSet,hs.gender);\r\n}\r\n\r\nfunction showList(address _ad)public{\r\n\r\n  uint len=indexSet.length; \r\n    if(len >0){\r\n      delete indexSet;\r\n      delete stringSet;\r\n    }\r\n\r\n    for(uint i=0;i<personalSet.length;i++){\r\n      if(personalSet[i].userAddress==_ad ){\r\n        indexSet.push(i);\r\n      //  stringSet.push(personalSet[i].startTime);\r\n      }\r\n    }\r\n\r\n  emit ShowList(indexSet,stringSet);\r\n\r\n}\r\n\r\n\r\n}",
  "sourcePath": "D:/WinForDev/project/testpetshop/contracts/PersonalInfo.sol",
  "compiler": {
    "name": "solc",
    "version": "0.8.7+commit.e28d00a7.Emscripten.clang"
  },
  "schemaVersion": "3.3.4",
  "updatedAt": "2021-09-09T19:55:02.278Z",
  "devdoc": {
    "kind": "dev",
    "methods": {},
    "version": 1
  },
  "userdoc": {
    "kind": "user",
    "methods": {},
    "version": 1
  }
}