{
  "contractName": "PhotoIpfs",
  "abi": [
    {
      "anonymous": false,
      "inputs": [
        {
          "indexed": false,
          "internalType": "address",
          "name": "ad",
          "type": "address"
        },
        {
          "indexed": false,
          "internalType": "bool",
          "name": "flag",
          "type": "bool"
        },
        {
          "indexed": false,
          "internalType": "uint256",
          "name": "msize",
          "type": "uint256"
        }
      ],
      "name": "StorageE",
      "type": "event"
    },
    {
      "anonymous": false,
      "inputs": [
        {
          "indexed": false,
          "internalType": "uint256[]",
          "name": "testSet",
          "type": "uint256[]"
        },
        {
          "indexed": false,
          "internalType": "uint256",
          "name": "hsize",
          "type": "uint256"
        }
      ],
      "name": "StorageU",
      "type": "event"
    },
    {
      "inputs": [
        {
          "internalType": "address",
          "name": "_addr",
          "type": "address"
        },
        {
          "internalType": "string",
          "name": "_fileHash",
          "type": "string"
        },
        {
          "internalType": "string",
          "name": "_fileName",
          "type": "string"
        },
        {
          "internalType": "string",
          "name": "_fileTime",
          "type": "string"
        }
      ],
      "name": "storeHash",
      "outputs": [],
      "stateMutability": "nonpayable",
      "type": "function"
    },
    {
      "inputs": [
        {
          "internalType": "address",
          "name": "_addr",
          "type": "address"
        }
      ],
      "name": "showList",
      "outputs": [],
      "stateMutability": "nonpayable",
      "type": "function"
    },
    {
      "inputs": [
        {
          "internalType": "uint256",
          "name": "_pid",
          "type": "uint256"
        }
      ],
      "name": "getHashByPid",
      "outputs": [
        {
          "internalType": "string",
          "name": "",
          "type": "string"
        }
      ],
      "stateMutability": "view",
      "type": "function",
      "constant": true
    },
    {
      "inputs": [
        {
          "internalType": "address",
          "name": "_addr",
          "type": "address"
        }
      ],
      "name": "sum0",
      "outputs": [
        {
          "internalType": "uint256[]",
          "name": "",
          "type": "uint256[]"
        }
      ],
      "stateMutability": "view",
      "type": "function",
      "constant": true
    },
    {
      "inputs": [],
      "name": "sum1",
      "outputs": [
        {
          "internalType": "uint256[]",
          "name": "",
          "type": "uint256[]"
        }
      ],
      "stateMutability": "pure",
      "type": "function",
      "constant": true
    },
    {
      "inputs": [
        {
          "internalType": "address",
          "name": "_addr",
          "type": "address"
        }
      ],
      "name": "sum2",
      "outputs": [
        {
          "internalType": "uint256",
          "name": "",
          "type": "uint256"
        }
      ],
      "stateMutability": "view",
      "type": "function",
      "constant": true
    }
  ],
  "bytecode": "0x608060405234801561001057600080fd5b50611584806100206000396000f3fe608060405234801561001057600080fd5b50600436106100625760003560e01c8063027309ec146100675780638637ba74146100835780639e5f5044146100b3578063b7cfc04b146100d1578063dcd4011d14610101578063dd261b971461011d575b600080fd5b610081600480360381019061007c9190610d7e565b61014d565b005b61009d60048036038101906100989190610e39565b610499565b6040516100aa9190611112565b60405180910390f35b6100bb61054c565b6040516100c891906110c0565b60405180910390f35b6100eb60048036038101906100e69190610d24565b610608565b6040516100f891906111b6565b60405180910390f35b61011b60048036038101906101169190610d24565b6107e0565b005b61013760048036038101906101329190610d24565b61097d565b60405161014491906110c0565b60405180910390f35b610155610b4e565b600060019050600115156000600501866040516101729190611072565b908152602001604051809103902060009054906101000a900460ff161515146103c3576040518060c001604052808773ffffffffffffffffffffffffffffffffffffffff168152602001858152602001868152602001848152602001600073__IterableMapping_______________________63deb3d89690916040518263ffffffff1660e01b81526004016102089190611134565b60206040518083038186803b15801561022057600080fd5b505af4158015610234573d6000803e3d6000fd5b505050506040513d601f19601f820116820180604052508101906102589190610e66565b8152602001600115158152509150600073__IterableMapping_______________________639e3e3102909188886040518463ffffffff1660e01b81526004016102a49392919061114f565b60006040518083038186803b1580156102bc57600080fd5b505af41580156102d0573d6000803e3d6000fd5b50505050816008866040516102e59190611072565b908152602001604051809103902060008201518160000160006101000a81548173ffffffffffffffffffffffffffffffffffffffff021916908373ffffffffffffffffffffffffffffffffffffffff1602179055506020820151816001019080519060200190610356929190610b9c565b506040820151816002019080519060200190610373929190610b9c565b506060820151816003019080519060200190610390929190610b9c565b506080820151816004015560a08201518160050160006101000a81548160ff0219169083151502179055509050506103c8565b600090505b60008073__IterableMapping_______________________63deb3d89690916040518263ffffffff1660e01b81526004016104039190611134565b60206040518083038186803b15801561041b57600080fd5b505af415801561042f573d6000803e3d6000fd5b505050506040513d601f19601f820116820180604052508101906104539190610e66565b90507fc53cbeeb83f1a2c88b23b15611a1ee1fe23f7212bdb4aff2c9d1b71e5d8ded2987838360405161048893929190611089565b60405180910390a150505050505050565b6060600060010182815481106104b2576104b161147d565b5b9060005260206000200180546104c790611359565b80601f01602080910402602001604051908101604052809291908181526020018280546104f390611359565b80156105405780601f1061051557610100808354040283529160200191610540565b820191906000526020600020905b81548152906001019060200180831161052357829003601f168201915b50505050509050919050565b60606000600190506000600290506000600390506000600490506000600590506000600167ffffffffffffffff811115610589576105886114ac565b5b6040519080825280602002602001820160405280156105b75781602001602082028036833780820191505090505b50905085816000815181106105cf576105ce61147d565b5b60200260200101818152505084816001815181106105f0576105ef61147d565b5b60200260200101818152505080965050505050505090565b60008060009050606060005b600073__IterableMapping_______________________63deb3d89690916040518263ffffffff1660e01b815260040161064e9190611134565b60206040518083038186803b15801561066657600080fd5b505af415801561067a573d6000803e3d6000fd5b505050506040513d601f19601f8201168201806040525081019061069e9190610e66565b8110156107d55760008073__IterableMapping_______________________63d1aa9e7e9091846040518363ffffffff1660e01b81526004016106e292919061118d565b60206040518083038186803b1580156106fa57600080fd5b505af415801561070e573d6000803e3d6000fd5b505050506040513d601f19601f820116820180604052508101906107329190610d51565b90508573ffffffffffffffffffffffffffffffffffffffff168173ffffffffffffffffffffffffffffffffffffffff16141561079b578183838151811061077c5761077b61147d565b5b6020026020010181815250508380610793906113d6565b9450506107c1565b60068383815181106107b0576107af61147d565b5b602002602001018181525050600a93505b5080806107cd906113d6565b915050610614565b508192505050919050565b60006006805490509050600081111561080257600660006108019190610c22565b5b60005b600073__IterableMapping_______________________63deb3d89690916040518263ffffffff1660e01b815260040161083f9190611134565b60206040518083038186803b15801561085757600080fd5b505af415801561086b573d6000803e3d6000fd5b505050506040513d601f19601f8201168201806040525081019061088f9190610e66565b81101561093357600060030160008473ffffffffffffffffffffffffffffffffffffffff1673ffffffffffffffffffffffffffffffffffffffff16815260200190815260200160002054600060020160008381526020019081526020016000205414156109205760068190806001815401808255809150506001900390600052602060002001600090919091909150555b808061092b906113d6565b915050610805565b50600060068054905090507fd143c9ceb3af6830e232ca21b936d1817fffc322f88d5346424f8033770d58456006826040516109709291906110e2565b60405180910390a1505050565b60606000606060005b600073__IterableMapping_______________________63deb3d89690916040518263ffffffff1660e01b81526004016109c09190611134565b60206040518083038186803b1580156109d857600080fd5b505af41580156109ec573d6000803e3d6000fd5b505050506040513d601f19601f82011682018060405250810190610a109190610e66565b811015610b435760008073__IterableMapping_______________________63d1aa9e7e9091846040518363ffffffff1660e01b8152600401610a5492919061118d565b60206040518083038186803b158015610a6c57600080fd5b505af4158015610a80573d6000803e3d6000fd5b505050506040513d601f19601f82011682018060405250810190610aa49190610d51565b90508573ffffffffffffffffffffffffffffffffffffffff168173ffffffffffffffffffffffffffffffffffffffff161415610b0d5781838381518110610aee57610aed61147d565b5b6020026020010181815250508380610b05906113d6565b945050610b2f565b6006838381518110610b2257610b2161147d565b5b6020026020010181815250505b508080610b3b906113d6565b915050610986565b508092505050919050565b6040518060c00160405280600073ffffffffffffffffffffffffffffffffffffffff168152602001606081526020016060815260200160608152602001600081526020016000151581525090565b828054610ba890611359565b90600052602060002090601f016020900481019282610bca5760008555610c11565b82601f10610be357805160ff1916838001178555610c11565b82800160010185558215610c11579182015b82811115610c10578251825591602001919060010190610bf5565b5b509050610c1e9190610c43565b5090565b5080546000825590600052602060002090810190610c409190610c43565b50565b5b80821115610c5c576000816000905550600101610c44565b5090565b6000610c73610c6e846111f6565b6111d1565b905082815260208101848484011115610c8f57610c8e6114f3565b5b610c9a848285611317565b509392505050565b600081359050610cb181611520565b92915050565b600081519050610cc681611520565b92915050565b600082601f830112610ce157610ce06114ee565b5b8135610cf1848260208601610c60565b91505092915050565b600081359050610d0981611537565b92915050565b600081519050610d1e81611537565b92915050565b600060208284031215610d3a57610d396114fd565b5b6000610d4884828501610ca2565b91505092915050565b600060208284031215610d6757610d666114fd565b5b6000610d7584828501610cb7565b91505092915050565b60008060008060808587031215610d9857610d976114fd565b5b6000610da687828801610ca2565b945050602085013567ffffffffffffffff811115610dc757610dc66114f8565b5b610dd387828801610ccc565b935050604085013567ffffffffffffffff811115610df457610df36114f8565b5b610e0087828801610ccc565b925050606085013567ffffffffffffffff811115610e2157610e206114f8565b5b610e2d87828801610ccc565b91505092959194509250565b600060208284031215610e4f57610e4e6114fd565b5b6000610e5d84828501610cfa565b91505092915050565b600060208284031215610e7c57610e7b6114fd565b5b6000610e8a84828501610d0f565b91505092915050565b6000610e9f8383611045565b60208301905092915050565b610eb4816112cf565b82525050565b610ec3816112cf565b82525050565b6000610ed48261124c565b610ede8185611287565b9350610ee983611227565b8060005b83811015610f1a578151610f018882610e93565b9750610f0c8361126d565b925050600181019050610eed565b5085935050505092915050565b6000610f3282611257565b610f3c8185611287565b9350610f4783611237565b8060005b83811015610f7f57610f5c826114db565b610f668882610e93565b9750610f718361127a565b925050600181019050610f4b565b5085935050505092915050565b610f95816112e1565b82525050565b6000610fa682611262565b610fb08185611298565b9350610fc0818560208601611326565b610fc981611502565b840191505092915050565b6000610fdf82611262565b610fe981856112a9565b9350610ff9818560208601611326565b61100281611502565b840191505092915050565b600061101882611262565b61102281856112ba565b9350611032818560208601611326565b80840191505092915050565b8082525050565b61104e8161130d565b82525050565b61105d8161130d565b82525050565b61106c8161130d565b82525050565b600061107e828461100d565b915081905092915050565b600060608201905061109e6000830186610eab565b6110ab6020830185610f8c565b6110b86040830184611054565b949350505050565b600060208201905081810360008301526110da8184610ec9565b905092915050565b600060408201905081810360008301526110fc8185610f27565b905061110b6020830184611054565b9392505050565b6000602082019050818103600083015261112c8184610f9b565b905092915050565b6000602082019050611149600083018461103e565b92915050565b6000606082019050611164600083018661103e565b6111716020830185610eba565b81810360408301526111838184610fd4565b9050949350505050565b60006040820190506111a2600083018561103e565b6111af6020830184611063565b9392505050565b60006020820190506111cb6000830184611054565b92915050565b60006111db6111ec565b90506111e782826113a5565b919050565b6000604051905090565b600067ffffffffffffffff821115611211576112106114ac565b5b61121a82611502565b9050602081019050919050565b6000819050602082019050919050565b60008190508160005260206000209050919050565b600081519050919050565b600081549050919050565b600081519050919050565b6000602082019050919050565b6000600182019050919050565b600082825260208201905092915050565b600082825260208201905092915050565b600082825260208201905092915050565b600081905092915050565b6000819050919050565b60006112da826112ed565b9050919050565b60008115159050919050565b600073ffffffffffffffffffffffffffffffffffffffff82169050919050565b6000819050919050565b82818337600083830152505050565b60005b83811015611344578082015181840152602081019050611329565b83811115611353576000848401525b50505050565b6000600282049050600182168061137157607f821691505b602082108114156113855761138461144e565b5b50919050565b600061139e61139983611513565b6112c5565b9050919050565b6113ae82611502565b810181811067ffffffffffffffff821117156113cd576113cc6114ac565b5b80604052505050565b60006113e18261130d565b91507fffffffffffffffffffffffffffffffffffffffffffffffffffffffffffffffff8214156114145761141361141f565b5b600182019050919050565b7f4e487b7100000000000000000000000000000000000000000000000000000000600052601160045260246000fd5b7f4e487b7100000000000000000000000000000000000000000000000000000000600052602260045260246000fd5b7f4e487b7100000000000000000000000000000000000000000000000000000000600052603260045260246000fd5b7f4e487b7100000000000000000000000000000000000000000000000000000000600052604160045260246000fd5b60006114e7825461138b565b9050919050565b600080fd5b600080fd5b600080fd5b600080fd5b6000601f19601f8301169050919050565b60008160001c9050919050565b611529816112cf565b811461153457600080fd5b50565b6115408161130d565b811461154b57600080fd5b5056fea2646970667358221220524b5d124c86c89e4c914ed829449a5432c9899573a343c2652c87b440565e7c64736f6c63430008070033",
  "immutableReferences": {},
  "source": "pragma solidity >=0.4.22 <0.9.0;\r\npragma experimental ABIEncoderV2;\r\n\r\n//import {IterableMapping} from \"./IterableMapping.sol\";\r\n//import {AccessControl} from \"../node_modules/openzeppelin-solidity/contracts/access/AccessControl.sol\";\r\nimport   './IterableMapping.sol';\r\n//import {User} from './User.sol';\r\n\r\n\r\n\r\ncontract PhotoIpfs{\r\n\r\n\r\n    using IterableMapping for IterableMapping.Map;\r\n    IterableMapping.Map private map;\r\n\r\n    struct PhotoStruct{\r\n\r\n          address userAddress;\r\n          string fileName;\r\n          //string fileType;\r\n          string fileHash;\r\n          string fileTime;\r\n          //string version;\r\n          uint   index;\r\n          bool   isValid;\r\n\r\n    }\r\n\r\n\r\n  //  string[] private photoSet;\r\n\r\n    uint[] indexSet; //\r\n  //  address[] addrSet;\r\n\r\n    mapping(address =>PhotoStruct) addressToStruct;\r\n    mapping(string =>PhotoStruct)  hashToStruct;\r\n\r\n   // mapping(address => uint) addrToIndex;\r\n   // mapping(string => uint)  hashToIndex;\r\n\r\n    //mapping(string =>address)  hashToAddress;\r\n    //mapping(uint =>address)  hashIndexToAddress;\r\n    \r\n    //mapping(uint=>uint) uIdToPid;\r\n\r\n    event StorageE(address ad,bool flag,uint msize); \r\n    event StorageU(uint[] testSet,uint hsize); \r\n\r\n\r\n//\r\n    function storeHash(address _addr,string memory _fileHash,string memory _fileName,string memory _fileTime) public {\r\n\r\n        PhotoStruct memory ps;\r\n\r\n        bool returnFlag =true;\r\n\r\n        //hash\r\n        if(map.insertedHash[_fileHash]!=true){ //hash\r\n\r\n              ps= PhotoStruct(_addr,_fileName,_fileHash,_fileTime,map.size(),true);\r\n              map.set(_addr, _fileHash);                        \r\n              hashToStruct[_fileHash]=ps;\r\n        }else{       //Hash,\r\n          returnFlag = false;\r\n        }\r\n     \r\n        uint msize =  map.size();\r\n        emit StorageE(_addr,returnFlag,msize);\r\n\r\n    }\r\n\r\n//address\r\n   function showList(address _addr) public{\r\n\r\n\r\n   //\r\n    uint len=indexSet.length; \r\n    if(len >0){\r\n      delete indexSet;\r\n    }\r\n\r\n\r\n    for (uint i=0;i<map.size();i++){\r\n\r\n           if(map.values[i]==map.indexOf[_addr]){\r\n                indexSet.push(i);\r\n           }\r\n   }\r\n\r\n      uint hsize = indexSet.length;\r\n\r\n      emit StorageU(indexSet,hsize);\r\n  \r\n  }\r\n\r\n   function getHashByPid(uint _pid)public view returns(string memory){\r\n         return map.hashs[_pid] ;\r\n  }\r\n \r\n\r\n\r\n    //  function hasAddress(address _addr)public view returns(bool) {\r\n    //       if(addressToStruct[_addr].isValid!=true){\r\n    //           return true;\r\n    //       }else{\r\n    //           return false;\r\n    //       }\r\n\r\n    // }\r\n\r\n\r\n    //  function getAddressByHash(string memory newhash)public view returns(address){\r\n    //    return hashToAddress[newhash];\r\n    //  }\r\n\r\n \r\n\r\n    //  function getHashByAddress(address _addr)public view returns(string memory){\r\n    //    return addressToStruct[_addr].fileHash;\r\n    //  }\r\n     \r\n\r\n    \r\n\r\n    // function getHashByUid(uint uid) public view returns(string memory){\r\n    //     uint pid = uIdToPid[uid];\r\n    //     string memory phash= photoSet[pid];\r\n    //     return phash;\r\n    // }\r\n\r\n\r\n\r\n\r\n \r\n\r\n   \r\n\r\n  function sum0(address _addr) public view returns  (uint[] memory)\r\n  {\r\n  \r\n  uint s=0;\r\n  uint[] memory temp;\r\n        for (uint i = 0; i < map.size(); i++) {\r\n\r\n            address key = map.getKeyAtIndex(i);\r\n           // uint vv=map.get(key) ;\r\n\r\n            if(key==_addr){\r\n            temp[i]=uint(i);\r\n            s++;\r\n        }else{\r\n          temp[i]=uint(6);\r\n        }\r\n      \r\n        }\r\n\r\n    return temp;\r\n  }\r\n\r\nfunction sum1() public pure returns  (uint[] memory)\r\n  {\r\n  \r\n uint a=1;\r\n uint b=2;\r\n uint c=3;\r\n uint d=4;\r\n uint e=5;\r\n\r\nuint[] memory temp =new uint[](1) ;\r\n  temp[0] = a;\r\n  temp[1] = b;     \r\n\r\n    return temp;\r\n  }\r\n\r\n   function sum2(address _addr) public view returns  (uint )\r\n  {\r\n  \r\n  uint s=0;\r\n  //uint count=0;\r\n  uint[] memory temp;\r\n        for (uint i = 0; i < map.size(); i++) {\r\n\r\n            address key = map.getKeyAtIndex(i);\r\n           // uint vv=map.get(key) ;\r\n\r\n            if(key==_addr){\r\n            temp[i]=uint(i);\r\n            s++;\r\n        }else{\r\n          temp[i]=uint(6);\r\n          s=10;\r\n        }\r\n      \r\n        }\r\n\r\n    return s;\r\n  }\r\n\r\n/**************\r\n   function sum5() public\r\n  {\r\n    //indexSet.push()\r\n    uint len=indexSet.length;\r\n\r\n    if(len >0){\r\n      // for (uint c=0;c<len;c++){\r\n      //   indexSet[c] =  indexSet[c+1];\r\n      // }\r\n\r\n      delete indexSet;\r\n      indexSet.push(uint(8));\r\n\r\n    }else{\r\n           for(uint i=0;i<uint(5);i++){        \r\n          //indexSet[i]=0;\r\n           indexSet.push(uint(6));\r\n    }\r\n    }\r\n\r\n    emit StorageU(indexSet);\r\n\r\n    // return indexSet;\r\n\r\n    \r\n  }\r\n\r\n******************/\r\n     // function hasHash(string memory ipfsHash)public view returns(bool) {\r\n    //       if(hashToStruct[ipfsHash].isValid!=true){ //true\r\n    //           return true;\r\n    //       }else{\r\n    //           return false;\r\n    //       }\r\n\r\n    // }\r\n\r\n\r\n\r\n\r\n\r\n}",
  "sourcePath": "D:/WinForDev/project/testpetshop/contracts/PhotoIpfs.sol",
  "compiler": {
    "name": "solc",
    "version": "0.8.7+commit.e28d00a7.Emscripten.clang"
  },
  "schemaVersion": "3.3.4",
  "updatedAt": "2021-09-09T20:07:51.624Z",
  "networkType": "ethereum",
  "devdoc": {
    "kind": "dev",
    "methods": {},
    "version": 1
  },
  "userdoc": {
    "kind": "user",
    "methods": {},
    "version": 1
  }
}