{
  "contractName": "StorageIpfs",
  "abi": [
    {
      "anonymous": false,
      "inputs": [
        {
          "indexed": false,
          "internalType": "address",
          "name": "ad",
          "type": "address"
        },
        {
          "indexed": false,
          "internalType": "string",
          "name": "ipfs",
          "type": "string"
        }
      ],
      "name": "StorageE",
      "type": "event"
    },
    {
      "constant": false,
      "inputs": [
        {
          "internalType": "address",
          "name": "addr",
          "type": "address"
        },
        {
          "internalType": "string",
          "name": "ipfsHash",
          "type": "string"
        }
      ],
      "name": "storeHashToAddress",
      "outputs": [],
      "payable": false,
      "stateMutability": "nonpayable",
      "type": "function"
    },
    {
      "constant": true,
      "inputs": [
        {
          "internalType": "string",
          "name": "newhash",
          "type": "string"
        }
      ],
      "name": "getAddressByHash",
      "outputs": [
        {
          "internalType": "address",
          "name": "",
          "type": "address"
        }
      ],
      "payable": false,
      "stateMutability": "view",
      "type": "function"
    },
    {
      "constant": true,
      "inputs": [
        {
          "internalType": "address",
          "name": "addr",
          "type": "address"
        }
      ],
      "name": "findHashByAddress",
      "outputs": [
        {
          "internalType": "string[]",
          "name": "",
          "type": "string[]"
        }
      ],
      "payable": false,
      "stateMutability": "view",
      "type": "function"
    },
    {
      "constant": true,
      "inputs": [
        {
          "internalType": "string",
          "name": "ipfsHash",
          "type": "string"
        }
      ],
      "name": "hasHash1",
      "outputs": [
        {
          "internalType": "bool",
          "name": "",
          "type": "bool"
        }
      ],
      "payable": false,
      "stateMutability": "view",
      "type": "function"
    }
  ],
  "bytecode": "0x608060405234801561001057600080fd5b50610803806100206000396000f3fe608060405234801561001057600080fd5b506004361061004c5760003560e01c80632c8fa3d9146100515780633440772b14610081578063493bef77146100b1578063cd50e531146100cd575b600080fd5b61006b60048036036100669190810190610419565b6100fd565b60405161007891906105bb565b60405180910390f35b61009b6004803603610096919081019061039c565b610145565b6040516100a89190610606565b60405180910390f35b6100cb60048036036100c691908101906103c5565b610151565b005b6100e760048036036100e29190810190610419565b61023f565b6040516100f49190610628565b60405180910390f35b600060028260405161010f91906105a4565b908152602001604051809103902060009054906101000a900473ffffffffffffffffffffffffffffffffffffffff169050919050565b60608080915050919050565b80600160008473ffffffffffffffffffffffffffffffffffffffff1673ffffffffffffffffffffffffffffffffffffffff16815260200190815260200160002090805190602001906101a492919061028e565b50816002826040516101b691906105a4565b908152602001604051809103902060006101000a81548173ffffffffffffffffffffffffffffffffffffffff021916908373ffffffffffffffffffffffffffffffffffffffff1602179055507fe918c108ddffd16bb302729718dc658ce72153bfabc6e050d605e2b0f633ce5e82826040516102339291906105d6565b60405180910390a15050565b60006001151560038360405161025591906105a4565b908152602001604051809103902060030160009054906101000a900460ff161515146102845760019050610289565b600090505b919050565b828054600181600116156101000203166002900490600052602060002090601f016020900481019282601f106102cf57805160ff19168380011785556102fd565b828001600101855582156102fd579182015b828111156102fc5782518255916020019190600101906102e1565b5b50905061030a919061030e565b5090565b61033091905b8082111561032c576000816000905550600101610314565b5090565b90565b600081359050610342816107a9565b92915050565b600082601f83011261035957600080fd5b813561036c61036782610670565b610643565b9150808252602083016020830185838301111561038857600080fd5b610393838284610756565b50505092915050565b6000602082840312156103ae57600080fd5b60006103bc84828501610333565b91505092915050565b600080604083850312156103d857600080fd5b60006103e685828601610333565b925050602083013567ffffffffffffffff81111561040357600080fd5b61040f85828601610348565b9150509250929050565b60006020828403121561042b57600080fd5b600082013567ffffffffffffffff81111561044557600080fd5b61045184828501610348565b91505092915050565b6000610466838361056b565b905092915050565b61047781610718565b82525050565b6000610488826106ac565b61049281856106da565b9350836020820285016104a48561069c565b8060005b858110156104e057848403895281516104c1858261045a565b94506104cc836106cd565b925060208a019950506001810190506104a8565b50829750879550505050505092915050565b6104fb8161072a565b82525050565b600061050c826106c2565b61051681856106fc565b9350610526818560208601610765565b61052f81610798565b840191505092915050565b6000610545826106c2565b61054f818561070d565b935061055f818560208601610765565b80840191505092915050565b6000610576826106b7565b61058081856106eb565b9350610590818560208601610765565b61059981610798565b840191505092915050565b60006105b0828461053a565b915081905092915050565b60006020820190506105d0600083018461046e565b92915050565b60006040820190506105eb600083018561046e565b81810360208301526105fd8184610501565b90509392505050565b60006020820190508181036000830152610620818461047d565b905092915050565b600060208201905061063d60008301846104f2565b92915050565b6000604051905081810181811067ffffffffffffffff8211171561066657600080fd5b8060405250919050565b600067ffffffffffffffff82111561068757600080fd5b601f19601f8301169050602081019050919050565b6000819050602082019050919050565b600081519050919050565b600081519050919050565b600081519050919050565b6000602082019050919050565b600082825260208201905092915050565b600082825260208201905092915050565b600082825260208201905092915050565b600081905092915050565b600061072382610736565b9050919050565b60008115159050919050565b600073ffffffffffffffffffffffffffffffffffffffff82169050919050565b82818337600083830152505050565b60005b83811015610783578082015181840152602081019050610768565b83811115610792576000848401525b50505050565b6000601f19601f8301169050919050565b6107b281610718565b81146107bd57600080fd5b5056fea365627a7a7231582091b51ab4e219de03bbc436124eb1f46d731228c9eb7b8259a9017c25546c0e386c6578706572696d656e74616cf564736f6c634300050c0040",
  "source": "pragma solidity >=0.4.22 <0.9.0;\r\npragma experimental ABIEncoderV2;\r\n\r\ncontract StorageIpfs{\r\n\r\n    struct Ipfs{\r\n          address userAddress;\r\n          string ipfsHash;\r\n          uint index;\r\n          bool isValid;\r\n\r\n    }\r\n\r\n    string[]  private hashSet;  \r\n    mapping(address => string) addressToHash;\r\n    mapping(string =>address)  hashToAddress;\r\n    mapping(string =>Ipfs)  hashToStruct;\r\n\r\n    event StorageE(address ad,string ipfs); \r\n\r\n    function storeHashToAddress(address addr,string memory ipfsHash) public{\r\n\r\n        addressToHash[addr] =ipfsHash;\r\n        hashToAddress[ipfsHash]=addr;\r\n        emit StorageE(addr, ipfsHash);\r\n    }\r\n\r\n     function getAddressByHash(string memory newhash)public view returns(address){\r\n       return hashToAddress[newhash];\r\n     }\r\n\r\n    function findHashByAddress(address addr) public view returns(string[] memory) {\r\n\r\n        string[] memory strA;\r\n        return strA;\r\n    }\r\n\r\n    function hasHash1(string memory ipfsHash)public view returns(bool) {\r\n          if(hashToStruct[ipfsHash].isValid!=true){\r\n              return true;\r\n          }else{\r\n              return false;\r\n          }\r\n\r\n    }\r\n\r\n}",
  "sourcePath": "D:/WinForDev/project/testpetshop/contracts/StorageIpfs.sol",
  "compiler": {
    "name": "solc",
    "version": "0.5.12+commit.7709ece9.Emscripten.clang"
  },
  "schemaVersion": "3.0.19",
  "updatedAt": "2021-08-19T22:52:39.417Z",
  "networkType": "ethereum",
  "devdoc": {
    "methods": {}
  },
  "userdoc": {
    "methods": {}
  }
}