{
  "contractName": "TestAccess",
  "abi": [
    {
      "inputs": [],
      "stateMutability": "nonpayable",
      "type": "constructor"
    },
    {
      "anonymous": false,
      "inputs": [
        {
          "indexed": true,
          "internalType": "bytes32",
          "name": "role",
          "type": "bytes32"
        },
        {
          "indexed": true,
          "internalType": "bytes32",
          "name": "previousAdminRole",
          "type": "bytes32"
        },
        {
          "indexed": true,
          "internalType": "bytes32",
          "name": "newAdminRole",
          "type": "bytes32"
        }
      ],
      "name": "RoleAdminChanged",
      "type": "event"
    },
    {
      "anonymous": false,
      "inputs": [
        {
          "indexed": true,
          "internalType": "bytes32",
          "name": "role",
          "type": "bytes32"
        },
        {
          "indexed": true,
          "internalType": "address",
          "name": "account",
          "type": "address"
        },
        {
          "indexed": true,
          "internalType": "address",
          "name": "sender",
          "type": "address"
        }
      ],
      "name": "RoleGranted",
      "type": "event"
    },
    {
      "anonymous": false,
      "inputs": [
        {
          "indexed": true,
          "internalType": "bytes32",
          "name": "role",
          "type": "bytes32"
        },
        {
          "indexed": true,
          "internalType": "address",
          "name": "account",
          "type": "address"
        },
        {
          "indexed": true,
          "internalType": "address",
          "name": "sender",
          "type": "address"
        }
      ],
      "name": "RoleRevoked",
      "type": "event"
    },
    {
      "inputs": [],
      "name": "DEFAULT_ADMIN_ROLE",
      "outputs": [
        {
          "internalType": "bytes32",
          "name": "",
          "type": "bytes32"
        }
      ],
      "stateMutability": "view",
      "type": "function",
      "constant": true
    },
    {
      "inputs": [],
      "name": "DOCTOR_ROLE",
      "outputs": [
        {
          "internalType": "bytes32",
          "name": "",
          "type": "bytes32"
        }
      ],
      "stateMutability": "view",
      "type": "function",
      "constant": true
    },
    {
      "inputs": [],
      "name": "TEMP_ROLE",
      "outputs": [
        {
          "internalType": "bytes32",
          "name": "",
          "type": "bytes32"
        }
      ],
      "stateMutability": "view",
      "type": "function",
      "constant": true
    },
    {
      "inputs": [],
      "name": "USER_ROLE",
      "outputs": [
        {
          "internalType": "bytes32",
          "name": "",
          "type": "bytes32"
        }
      ],
      "stateMutability": "view",
      "type": "function",
      "constant": true
    },
    {
      "inputs": [
        {
          "internalType": "bytes32",
          "name": "role",
          "type": "bytes32"
        }
      ],
      "name": "getRoleAdmin",
      "outputs": [
        {
          "internalType": "bytes32",
          "name": "",
          "type": "bytes32"
        }
      ],
      "stateMutability": "view",
      "type": "function",
      "constant": true
    },
    {
      "inputs": [
        {
          "internalType": "bytes32",
          "name": "role",
          "type": "bytes32"
        },
        {
          "internalType": "address",
          "name": "account",
          "type": "address"
        }
      ],
      "name": "grantRole",
      "outputs": [],
      "stateMutability": "nonpayable",
      "type": "function"
    },
    {
      "inputs": [
        {
          "internalType": "bytes32",
          "name": "role",
          "type": "bytes32"
        },
        {
          "internalType": "address",
          "name": "account",
          "type": "address"
        }
      ],
      "name": "hasRole",
      "outputs": [
        {
          "internalType": "bool",
          "name": "",
          "type": "bool"
        }
      ],
      "stateMutability": "view",
      "type": "function",
      "constant": true
    },
    {
      "inputs": [
        {
          "internalType": "bytes32",
          "name": "role",
          "type": "bytes32"
        },
        {
          "internalType": "address",
          "name": "account",
          "type": "address"
        }
      ],
      "name": "renounceRole",
      "outputs": [],
      "stateMutability": "nonpayable",
      "type": "function"
    },
    {
      "inputs": [
        {
          "internalType": "bytes32",
          "name": "role",
          "type": "bytes32"
        },
        {
          "internalType": "address",
          "name": "account",
          "type": "address"
        }
      ],
      "name": "revokeRole",
      "outputs": [],
      "stateMutability": "nonpayable",
      "type": "function"
    },
    {
      "inputs": [
        {
          "internalType": "bytes4",
          "name": "interfaceId",
          "type": "bytes4"
        }
      ],
      "name": "supportsInterface",
      "outputs": [
        {
          "internalType": "bool",
          "name": "",
          "type": "bool"
        }
      ],
      "stateMutability": "view",
      "type": "function",
      "constant": true
    },
    {
      "inputs": [
        {
          "internalType": "address",
          "name": "account",
          "type": "address"
        }
      ],
      "name": "isAdmin",
      "outputs": [
        {
          "internalType": "bool",
          "name": "",
          "type": "bool"
        }
      ],
      "stateMutability": "view",
      "type": "function",
      "constant": true
    },
    {
      "inputs": [
        {
          "internalType": "address",
          "name": "account",
          "type": "address"
        }
      ],
      "name": "isUser",
      "outputs": [
        {
          "internalType": "bool",
          "name": "",
          "type": "bool"
        }
      ],
      "stateMutability": "view",
      "type": "function",
      "constant": true
    },
    {
      "inputs": [
        {
          "internalType": "address",
          "name": "account",
          "type": "address"
        }
      ],
      "name": "isDoctor",
      "outputs": [
        {
          "internalType": "bool",
          "name": "",
          "type": "bool"
        }
      ],
      "stateMutability": "view",
      "type": "function",
      "constant": true
    },
    {
      "inputs": [
        {
          "internalType": "address",
          "name": "account",
          "type": "address"
        }
      ],
      "name": "isTemp",
      "outputs": [
        {
          "internalType": "bool",
          "name": "",
          "type": "bool"
        }
      ],
      "stateMutability": "view",
      "type": "function",
      "constant": true
    },
    {
      "inputs": [
        {
          "internalType": "address",
          "name": "account",
          "type": "address"
        }
      ],
      "name": "addUser",
      "outputs": [],
      "stateMutability": "nonpayable",
      "type": "function"
    },
    {
      "inputs": [
        {
          "internalType": "address",
          "name": "account",
          "type": "address"
        }
      ],
      "name": "addDoctor",
      "outputs": [],
      "stateMutability": "nonpayable",
      "type": "function"
    },
    {
      "inputs": [
        {
          "internalType": "address",
          "name": "account",
          "type": "address"
        }
      ],
      "name": "addTemp",
      "outputs": [],
      "stateMutability": "nonpayable",
      "type": "function"
    },
    {
      "inputs": [
        {
          "internalType": "address",
          "name": "account",
          "type": "address"
        }
      ],
      "name": "addAdmin",
      "outputs": [],
      "stateMutability": "nonpayable",
      "type": "function"
    },
    {
      "inputs": [
        {
          "internalType": "address",
          "name": "account",
          "type": "address"
        }
      ],
      "name": "removeUser",
      "outputs": [],
      "stateMutability": "nonpayable",
      "type": "function"
    },
    {
      "inputs": [
        {
          "internalType": "address",
          "name": "account",
          "type": "address"
        }
      ],
      "name": "removeDoctor",
      "outputs": [],
      "stateMutability": "nonpayable",
      "type": "function"
    },
    {
      "inputs": [
        {
          "internalType": "address",
          "name": "account",
          "type": "address"
        }
      ],
      "name": "removeTemp",
      "outputs": [],
      "stateMutability": "nonpayable",
      "type": "function"
    },
    {
      "inputs": [],
      "name": "renounceAdmin",
      "outputs": [],
      "stateMutability": "nonpayable",
      "type": "function"
    }
  ],
  "bytecode": "0x60806040523480156200001157600080fd5b5060007362f7c361d88235ff5da45d2acaebf2b5f92dcb839050620000406000801b826200007c60201b60201c565b620000757f2db9fd3d099848027c2383d0a083396f6c41510d7acfd92adc99b6cffcf31e966000801b6200009260201b60201c565b5062000277565b6200008e8282620000f560201b60201c565b5050565b6000620000a583620001e660201b60201c565b905081600080858152602001908152602001600020600101819055508181847fbd79b86ffe0ab8e8776151514217cd7cacd52c909f66475c3af44e129f0b00ff60405160405180910390a4505050565b6200010782826200020560201b60201c565b620001e257600160008084815260200190815260200160002060000160008373ffffffffffffffffffffffffffffffffffffffff1673ffffffffffffffffffffffffffffffffffffffff16815260200190815260200160002060006101000a81548160ff021916908315150217905550620001876200026f60201b60201c565b73ffffffffffffffffffffffffffffffffffffffff168173ffffffffffffffffffffffffffffffffffffffff16837f2f8788117e7eff1d82e926ec794901d17c78024a50270940304540a733656f0d60405160405180910390a45b5050565b6000806000838152602001908152602001600020600101549050919050565b600080600084815260200190815260200160002060000160008373ffffffffffffffffffffffffffffffffffffffff1673ffffffffffffffffffffffffffffffffffffffff16815260200190815260200160002060009054906101000a900460ff16905092915050565b600033905090565b61167280620002876000396000f3fe608060405234801561001057600080fd5b50600436106101425760003560e01c80638bad0c0a116100b8578063a217fddf1161007c578063a217fddf1461036f578063b16c09e41461038d578063beb206e5146103bd578063d547741f146103db578063ee79dc2a146103f7578063fec331f21461041357610142565b80638bad0c0a146102cd57806391d14854146102d7578063985751881461030757806398fc90e914610323578063996440c61461033f57610142565b806336568abe1161010a57806336568abe146102115780634209fff11461022d578063421b2d8b1461025d5780634780468f14610279578063704802751461029557806389d01efd146102b157610142565b806301ffc9a7146101475780631311916114610177578063248a9ca31461019557806324d7806c146101c55780632f2ff15d146101f5575b600080fd5b610161600480360381019061015c9190610fed565b610431565b60405161016e91906111ae565b60405180910390f35b61017f6104ab565b60405161018c91906111c9565b60405180910390f35b6101af60048036038101906101aa9190610f80565b6104cf565b6040516101bc91906111c9565b60405180910390f35b6101df60048036038101906101da9190610f53565b6104ee565b6040516101ec91906111ae565b60405180910390f35b61020f600480360381019061020a9190610fad565b610504565b005b61022b60048036038101906102269190610fad565b61052d565b005b61024760048036038101906102429190610f53565b6105b0565b60405161025491906111ae565b60405180910390f35b61027760048036038101906102729190610f53565b6105e3565b005b610293600480360381019061028e9190610f53565b610610565b005b6102af60048036038101906102aa9190610f53565b610685565b005b6102cb60048036038101906102c69190610f53565b6106dd565b005b6102d5610752565b005b6102f160048036038101906102ec9190610fad565b610761565b6040516102fe91906111ae565b60405180910390f35b610321600480360381019061031c9190610f53565b6107cb565b005b61033d60048036038101906103389190610f53565b610840565b005b61035960048036038101906103549190610f53565b6108b5565b60405161036691906111ae565b60405180910390f35b6103776108e8565b60405161038491906111c9565b60405180910390f35b6103a760048036038101906103a29190610f53565b6108ef565b6040516103b491906111ae565b60405180910390f35b6103c5610922565b6040516103d291906111c9565b60405180910390f35b6103f560048036038101906103f09190610fad565b610946565b005b610411600480360381019061040c9190610f53565b61096f565b005b61041b6109e4565b60405161042891906111c9565b60405180910390f35b60007f7965db0b000000000000000000000000000000000000000000000000000000007bffffffffffffffffffffffffffffffffffffffffffffffffffffffff1916827bffffffffffffffffffffffffffffffffffffffffffffffffffffffff191614806104a457506104a382610a08565b5b9050919050565b7f2db9fd3d099848027c2383d0a083396f6c41510d7acfd92adc99b6cffcf31e9681565b6000806000838152602001908152602001600020600101549050919050565b60006104fd6000801b83610761565b9050919050565b61050d826104cf565b61051e81610519610a72565b610a7a565b6105288383610b17565b505050565b610535610a72565b73ffffffffffffffffffffffffffffffffffffffff168173ffffffffffffffffffffffffffffffffffffffff16146105a2576040517f08c379a000000000000000000000000000000000000000000000000000000000815260040161059990611266565b60405180910390fd5b6105ac8282610bf7565b5050565b60006105dc7f2db9fd3d099848027c2383d0a083396f6c41510d7acfd92adc99b6cffcf31e9683610761565b9050919050565b61060d7f2db9fd3d099848027c2383d0a083396f6c41510d7acfd92adc99b6cffcf31e9682610504565b50565b610619336104ee565b610658576040517f08c379a000000000000000000000000000000000000000000000000000000000815260040161064f90611226565b60405180910390fd5b6106827fc9c8e67a61d2e7371df46522b44051b955c16bf4b713ef44e1373b25bfcd80b282610504565b50565b61068e336104ee565b6106cd576040517f08c379a00000000000000000000000000000000000000000000000000000000081526004016106c490611226565b60405180910390fd5b6106da6000801b82610504565b50565b6106e6336105b0565b610725576040517f08c379a000000000000000000000000000000000000000000000000000000000815260040161071c90611246565b60405180910390fd5b61074f7f43ff29351b2a087ff0de34a21d7ace984a6db02334bd55816ff2a4accc33ff6582610946565b50565b61075f6000801b3361052d565b565b600080600084815260200190815260200160002060000160008373ffffffffffffffffffffffffffffffffffffffff1673ffffffffffffffffffffffffffffffffffffffff16815260200190815260200160002060009054906101000a900460ff16905092915050565b6107d4336104ee565b610813576040517f08c379a000000000000000000000000000000000000000000000000000000000815260040161080a90611226565b60405180910390fd5b61083d7f2db9fd3d099848027c2383d0a083396f6c41510d7acfd92adc99b6cffcf31e9682610946565b50565b610849336104ee565b610888576040517f08c379a000000000000000000000000000000000000000000000000000000000815260040161087f90611226565b60405180910390fd5b6108b27fc9c8e67a61d2e7371df46522b44051b955c16bf4b713ef44e1373b25bfcd80b282610946565b50565b60006108e17fc9c8e67a61d2e7371df46522b44051b955c16bf4b713ef44e1373b25bfcd80b283610761565b9050919050565b6000801b81565b600061091b7f43ff29351b2a087ff0de34a21d7ace984a6db02334bd55816ff2a4accc33ff6583610761565b9050919050565b7f43ff29351b2a087ff0de34a21d7ace984a6db02334bd55816ff2a4accc33ff6581565b61094f826104cf565b6109608161095b610a72565b610a7a565b61096a8383610bf7565b505050565b610978336105b0565b6109b7576040517f08c379a00000000000000000000000000000000000000000000000000000000081526004016109ae90611246565b60405180910390fd5b6109e17f43ff29351b2a087ff0de34a21d7ace984a6db02334bd55816ff2a4accc33ff6582610504565b50565b7fc9c8e67a61d2e7371df46522b44051b955c16bf4b713ef44e1373b25bfcd80b281565b60007f01ffc9a7000000000000000000000000000000000000000000000000000000007bffffffffffffffffffffffffffffffffffffffffffffffffffffffff1916827bffffffffffffffffffffffffffffffffffffffffffffffffffffffff1916149050919050565b600033905090565b610a848282610761565b610b1357610aa98173ffffffffffffffffffffffffffffffffffffffff166014610cd8565b610ab78360001c6020610cd8565b604051602001610ac8929190611174565b6040516020818303038152906040526040517f08c379a0000000000000000000000000000000000000000000000000000000008152600401610b0a91906111e4565b60405180910390fd5b5050565b610b218282610761565b610bf357600160008084815260200190815260200160002060000160008373ffffffffffffffffffffffffffffffffffffffff1673ffffffffffffffffffffffffffffffffffffffff16815260200190815260200160002060006101000a81548160ff021916908315150217905550610b98610a72565b73ffffffffffffffffffffffffffffffffffffffff168173ffffffffffffffffffffffffffffffffffffffff16837f2f8788117e7eff1d82e926ec794901d17c78024a50270940304540a733656f0d60405160405180910390a45b5050565b610c018282610761565b15610cd457600080600084815260200190815260200160002060000160008373ffffffffffffffffffffffffffffffffffffffff1673ffffffffffffffffffffffffffffffffffffffff16815260200190815260200160002060006101000a81548160ff021916908315150217905550610c79610a72565b73ffffffffffffffffffffffffffffffffffffffff168173ffffffffffffffffffffffffffffffffffffffff16837ff6391f5c32d9c69d2a47ea670b442974b53935d1edc7fd64eb21e047a839171b60405160405180910390a45b5050565b606060006002836002610ceb9190611303565b610cf591906112ad565b67ffffffffffffffff811115610d0e57610d0d611496565b5b6040519080825280601f01601f191660200182016040528015610d405781602001600182028036833780820191505090505b5090507f300000000000000000000000000000000000000000000000000000000000000081600081518110610d7857610d77611467565b5b60200101907effffffffffffffffffffffffffffffffffffffffffffffffffffffffffffff1916908160001a9053507f780000000000000000000000000000000000000000000000000000000000000081600181518110610ddc57610ddb611467565b5b60200101907effffffffffffffffffffffffffffffffffffffffffffffffffffffffffffff1916908160001a90535060006001846002610e1c9190611303565b610e2691906112ad565b90505b6001811115610ec6577f3031323334353637383961626364656600000000000000000000000000000000600f861660108110610e6857610e67611467565b5b1a60f81b828281518110610e7f57610e7e611467565b5b60200101907effffffffffffffffffffffffffffffffffffffffffffffffffffffffffffff1916908160001a905350600485901c945080610ebf9061140e565b9050610e29565b5060008414610f0a576040517f08c379a0000000000000000000000000000000000000000000000000000000008152600401610f0190611206565b60405180910390fd5b8091505092915050565b600081359050610f23816115f7565b92915050565b600081359050610f388161160e565b92915050565b600081359050610f4d81611625565b92915050565b600060208284031215610f6957610f686114c5565b5b6000610f7784828501610f14565b91505092915050565b600060208284031215610f9657610f956114c5565b5b6000610fa484828501610f29565b91505092915050565b60008060408385031215610fc457610fc36114c5565b5b6000610fd285828601610f29565b9250506020610fe385828601610f14565b9150509250929050565b600060208284031215611003576110026114c5565b5b600061101184828501610f3e565b91505092915050565b6110238161136f565b82525050565b6110328161137b565b82525050565b600061104382611286565b61104d8185611291565b935061105d8185602086016113db565b611066816114ca565b840191505092915050565b600061107c82611286565b61108681856112a2565b93506110968185602086016113db565b80840191505092915050565b60006110af602083611291565b91506110ba826114db565b602082019050919050565b60006110d2601483611291565b91506110dd82611504565b602082019050919050565b60006110f5601383611291565b91506111008261152d565b602082019050919050565b60006111186017836112a2565b915061112382611556565b601782019050919050565b600061113b6011836112a2565b91506111468261157f565b601182019050919050565b600061115e602f83611291565b9150611169826115a8565b604082019050919050565b600061117f8261110b565b915061118b8285611071565b91506111968261112e565b91506111a28284611071565b91508190509392505050565b60006020820190506111c3600083018461101a565b92915050565b60006020820190506111de6000830184611029565b92915050565b600060208201905081810360008301526111fe8184611038565b905092915050565b6000602082019050818103600083015261121f816110a2565b9050919050565b6000602082019050818103600083015261123f816110c5565b9050919050565b6000602082019050818103600083015261125f816110e8565b9050919050565b6000602082019050818103600083015261127f81611151565b9050919050565b600081519050919050565b600082825260208201905092915050565b600081905092915050565b60006112b8826113d1565b91506112c3836113d1565b9250827fffffffffffffffffffffffffffffffffffffffffffffffffffffffffffffffff038211156112f8576112f7611438565b5b828201905092915050565b600061130e826113d1565b9150611319836113d1565b9250817fffffffffffffffffffffffffffffffffffffffffffffffffffffffffffffffff048311821515161561135257611351611438565b5b828202905092915050565b6000611368826113b1565b9050919050565b60008115159050919050565b6000819050919050565b60007fffffffff0000000000000000000000000000000000000000000000000000000082169050919050565b600073ffffffffffffffffffffffffffffffffffffffff82169050919050565b6000819050919050565b60005b838110156113f95780820151818401526020810190506113de565b83811115611408576000848401525b50505050565b6000611419826113d1565b9150600082141561142d5761142c611438565b5b600182039050919050565b7f4e487b7100000000000000000000000000000000000000000000000000000000600052601160045260246000fd5b7f4e487b7100000000000000000000000000000000000000000000000000000000600052603260045260246000fd5b7f4e487b7100000000000000000000000000000000000000000000000000000000600052604160045260246000fd5b600080fd5b6000601f19601f8301169050919050565b7f537472696e67733a20686578206c656e67746820696e73756666696369656e74600082015250565b7f5265737472696374656420746f2061646d696e73000000000000000000000000600082015250565b7f5265737472696374656420746f20557365727300000000000000000000000000600082015250565b7f416363657373436f6e74726f6c3a206163636f756e7420000000000000000000600082015250565b7f206973206d697373696e6720726f6c6520000000000000000000000000000000600082015250565b7f416363657373436f6e74726f6c3a2063616e206f6e6c792072656e6f756e636560008201527f20726f6c657320666f722073656c660000000000000000000000000000000000602082015250565b6116008161135d565b811461160b57600080fd5b50565b6116178161137b565b811461162257600080fd5b50565b61162e81611385565b811461163957600080fd5b5056fea26469706673582212200d31225f90c3914a2067a70e57411da88999a198b19ed19708a62784e4ea1ae464736f6c63430008070033",
  "immutableReferences": {},
  "source": "pragma solidity >=0.4.24 <0.9.0;\r\nimport '../node_modules/openzeppelin-solidity/contracts/access/AccessControl.sol';\r\n\r\n\r\ncontract TestAccess is AccessControl{\r\n    bytes32 public constant USER_ROLE = keccak256(\"USER\");\r\n    bytes32 public constant DOCTOR_ROLE = keccak256(\"DOCTOR\");\r\n    bytes32 public constant TEMP_ROLE = keccak256(\"TEMP\");\r\n\r\n\r\n    // constructor(address root) public{\r\n    //     _setupRole(DEFAULT_ADMIN_ROLE, root);\r\n    //     _setRoleAdmin(USER_ROLE, DEFAULT_ADMIN_ROLE);\r\n    // }\r\n\r\n     constructor() public{\r\n         address root = 0x62f7c361D88235Ff5Da45d2acAEbf2b5f92dCB83;\r\n        _setupRole(DEFAULT_ADMIN_ROLE, root);\r\n         _setRoleAdmin(USER_ROLE, DEFAULT_ADMIN_ROLE);\r\n     }\r\n\r\n\r\n /***Modifiers*************************************/    \r\n\r\n    modifier onlyAdmin(){\r\n        require(isAdmin(msg.sender),\"Restricted to admins\");\r\n        _;\r\n    }\r\n    modifier onlyUser(){\r\n        require(isUser(msg.sender),\"Restricted to Users\");\r\n        _;\r\n    }\r\n\r\n     modifier onlyDoctoe(){\r\n        require(isDoctor(msg.sender),\"Restricted to Doctors\");\r\n        _;\r\n    }\r\n\r\n    modifier onlyTemp(){\r\n        require(isTemp(msg.sender),\"Restricted to Temp\");\r\n        _;\r\n    }\r\n\r\n\r\n/***Functions*********************************/\r\n\r\n/********Judge*****************/\r\n    function isAdmin(address account) public virtual view returns(bool){\r\n        return hasRole(DEFAULT_ADMIN_ROLE,account);\r\n    }\r\n\r\n    function isUser(address account)public virtual view returns(bool){\r\n        return hasRole(USER_ROLE,account);\r\n    }\r\n\r\n    function isDoctor(address account)public virtual view returns(bool){\r\n        return hasRole(DOCTOR_ROLE,account);\r\n    }\r\n\r\n    function isTemp(address account)public virtual view returns(bool){\r\n        return hasRole(TEMP_ROLE,account);\r\n    }\r\n\r\n/***** Add ***************/\r\n    function addUser(address account)public{\r\n        grantRole(USER_ROLE, account);\r\n    }\r\n\r\n    function addDoctor(address account)public virtual onlyAdmin{\r\n        grantRole(DOCTOR_ROLE, account);\r\n    }\r\n\r\n    function addTemp(address account)public virtual onlyUser{\r\n        grantRole(TEMP_ROLE, account);\r\n    }\r\n\r\n    function addAdmin(address account) public virtual onlyAdmin{\r\n        grantRole(DEFAULT_ADMIN_ROLE, account);\r\n    }\r\n\r\n/*******Remove ***************** */\r\n    function removeUser(address account) public virtual onlyAdmin{\r\n        revokeRole(USER_ROLE, account);\r\n    }\r\n    function removeDoctor(address account) public virtual onlyAdmin{\r\n        revokeRole(DOCTOR_ROLE, account);\r\n    }\r\n    function removeTemp(address account) public virtual onlyUser{\r\n        revokeRole(TEMP_ROLE, account);\r\n    }\r\n\r\n    function renounceAdmin() public virtual{\r\n        renounceRole(DEFAULT_ADMIN_ROLE, msg.sender);\r\n    }\r\n}",
  "sourcePath": "D:/WinForDev/project/testpetshop/contracts/TestAccess.sol",
  "compiler": {
    "name": "solc",
    "version": "0.8.7+commit.e28d00a7.Emscripten.clang"
  },
  "schemaVersion": "3.3.4",
  "updatedAt": "2021-09-09T20:07:50.003Z",
  "networkType": "ethereum",
  "devdoc": {
    "kind": "dev",
    "methods": {
      "getRoleAdmin(bytes32)": {
        "details": "Returns the admin role that controls `role`. See {grantRole} and {revokeRole}. To change a role's admin, use {_setRoleAdmin}."
      },
      "grantRole(bytes32,address)": {
        "details": "Grants `role` to `account`. If `account` had not been already granted `role`, emits a {RoleGranted} event. Requirements: - the caller must have ``role``'s admin role."
      },
      "hasRole(bytes32,address)": {
        "details": "Returns `true` if `account` has been granted `role`."
      },
      "renounceRole(bytes32,address)": {
        "details": "Revokes `role` from the calling account. Roles are often managed via {grantRole} and {revokeRole}: this function's purpose is to provide a mechanism for accounts to lose their privileges if they are compromised (such as when a trusted device is misplaced). If the calling account had been granted `role`, emits a {RoleRevoked} event. Requirements: - the caller must be `account`."
      },
      "revokeRole(bytes32,address)": {
        "details": "Revokes `role` from `account`. If `account` had been granted `role`, emits a {RoleRevoked} event. Requirements: - the caller must have ``role``'s admin role."
      },
      "supportsInterface(bytes4)": {
        "details": "See {IERC165-supportsInterface}."
      }
    },
    "version": 1
  },
  "userdoc": {
    "kind": "user",
    "methods": {},
    "version": 1
  }
}