{
  "contractName": "User",
  "abi": [
    {
      "anonymous": false,
      "inputs": [
        {
          "indexed": false,
          "internalType": "address",
          "name": "ad",
          "type": "address"
        }
      ],
      "name": "CreateUserE",
      "type": "event"
    },
    {
      "inputs": [
        {
          "internalType": "uint256",
          "name": "",
          "type": "uint256"
        }
      ],
      "name": "userAddressSet",
      "outputs": [
        {
          "internalType": "address",
          "name": "",
          "type": "address"
        }
      ],
      "stateMutability": "view",
      "type": "function",
      "constant": true
    },
    {
      "inputs": [
        {
          "internalType": "address",
          "name": "_address",
          "type": "address"
        }
      ],
      "name": "hasAddress",
      "outputs": [
        {
          "internalType": "bool",
          "name": "flag3",
          "type": "bool"
        }
      ],
      "stateMutability": "view",
      "type": "function",
      "constant": true
    },
    {
      "inputs": [
        {
          "internalType": "address",
          "name": "_userAddress",
          "type": "address"
        },
        {
          "internalType": "string",
          "name": "uInsuranceNo",
          "type": "string"
        },
        {
          "internalType": "string",
          "name": "uName",
          "type": "string"
        },
        {
          "internalType": "string",
          "name": "pwd",
          "type": "string"
        }
      ],
      "name": "createUser1",
      "outputs": [],
      "stateMutability": "nonpayable",
      "type": "function"
    },
    {
      "inputs": [
        {
          "internalType": "address",
          "name": "_addr",
          "type": "address"
        }
      ],
      "name": "getUser",
      "outputs": [
        {
          "internalType": "string",
          "name": "",
          "type": "string"
        }
      ],
      "stateMutability": "view",
      "type": "function",
      "constant": true
    }
  ],
  "bytecode": "0x608060405234801561001057600080fd5b50610d63806100206000396000f3fe608060405234801561001057600080fd5b506004361061004c5760003560e01c806320b4953d14610051578063612ef02e1461006d5780636f77926b1461009d578063ff706170146100cd575b600080fd5b61006b60048036038101906100669190610923565b6100fd565b005b610087600480360381019061008291906109de565b6103ff565b6040516100949190610a62565b60405180910390f35b6100b760048036038101906100b291906108f6565b61043e565b6040516100c49190610a98565b60405180910390f35b6100e760048036038101906100e291906108f6565b6106dc565b6040516100f49190610a7d565b60405180910390f35b610105610764565b600080869080600181540180825580915050600190039060005260206000200160009091909190916101000a81548173ffffffffffffffffffffffffffffffffffffffff021916908373ffffffffffffffffffffffffffffffffffffffff1602179055506001859080600181540180825580915050600190039060005260206000200160009091909190915090805190602001906101a49291906107b9565b506002849080600181540180825580915050600190039060005260206000200160009091909190915090805190602001906101e09291906107b9565b50600060016000805490506101f59190610b2c565b90506040518060e001604052808873ffffffffffffffffffffffffffffffffffffffff16815260200187815260200186815260200185815260200142815260200182815260200160011515815250925082600360008973ffffffffffffffffffffffffffffffffffffffff1673ffffffffffffffffffffffffffffffffffffffff16815260200190815260200160002060008201518160000160006101000a81548173ffffffffffffffffffffffffffffffffffffffff021916908373ffffffffffffffffffffffffffffffffffffffff16021790555060208201518160010190805190602001906102e89291906107b9565b5060408201518160020190805190602001906103059291906107b9565b5060608201518160030190805190602001906103229291906107b9565b506080820151816004015560a0820151816005015560c08201518160060160006101000a81548160ff021916908315150217905550905050600360008873ffffffffffffffffffffffffffffffffffffffff1673ffffffffffffffffffffffffffffffffffffffff16815260200190815260200160002060000160009054906101000a900473ffffffffffffffffffffffffffffffffffffffff1691507fda0fd2c852c9b48b224abf2662858bf8e703f822f61a202c85c8c611392fdb91826040516103ee9190610a62565b60405180910390a150505050505050565b6000818154811061040f57600080fd5b906000526020600020016000915054906101000a900473ffffffffffffffffffffffffffffffffffffffff1681565b60606000600360008473ffffffffffffffffffffffffffffffffffffffff1673ffffffffffffffffffffffffffffffffffffffff1681526020019081526020016000206040518060e00160405290816000820160009054906101000a900473ffffffffffffffffffffffffffffffffffffffff1673ffffffffffffffffffffffffffffffffffffffff1673ffffffffffffffffffffffffffffffffffffffff1681526020016001820180546104f290610bea565b80601f016020809104026020016040519081016040528092919081815260200182805461051e90610bea565b801561056b5780601f106105405761010080835404028352916020019161056b565b820191906000526020600020905b81548152906001019060200180831161054e57829003601f168201915b5050505050815260200160028201805461058490610bea565b80601f01602080910402602001604051908101604052809291908181526020018280546105b090610bea565b80156105fd5780601f106105d2576101008083540402835291602001916105fd565b820191906000526020600020905b8154815290600101906020018083116105e057829003601f168201915b5050505050815260200160038201805461061690610bea565b80601f016020809104026020016040519081016040528092919081815260200182805461064290610bea565b801561068f5780601f106106645761010080835404028352916020019161068f565b820191906000526020600020905b81548152906001019060200180831161067257829003601f168201915b5050505050815260200160048201548152602001600582015481526020016006820160009054906101000a900460ff16151515158152505090506000816060015190508092505050919050565b60008060008054905014156106f4576001905061075f565b60011515600360008473ffffffffffffffffffffffffffffffffffffffff1673ffffffffffffffffffffffffffffffffffffffff16815260200190815260200160002060060160009054906101000a900460ff1615151415610759576000905061075e565b600190505b5b919050565b6040518060e00160405280600073ffffffffffffffffffffffffffffffffffffffff16815260200160608152602001606081526020016060815260200160008152602001600081526020016000151581525090565b8280546107c590610bea565b90600052602060002090601f0160209004810192826107e7576000855561082e565b82601f1061080057805160ff191683800117855561082e565b8280016001018555821561082e579182015b8281111561082d578251825591602001919060010190610812565b5b50905061083b919061083f565b5090565b5b80821115610858576000816000905550600101610840565b5090565b600061086f61086a84610adf565b610aba565b90508281526020810184848401111561088b5761088a610cdf565b5b610896848285610ba8565b509392505050565b6000813590506108ad81610cff565b92915050565b600082601f8301126108c8576108c7610cda565b5b81356108d884826020860161085c565b91505092915050565b6000813590506108f081610d16565b92915050565b60006020828403121561090c5761090b610ce9565b5b600061091a8482850161089e565b91505092915050565b6000806000806080858703121561093d5761093c610ce9565b5b600061094b8782880161089e565b945050602085013567ffffffffffffffff81111561096c5761096b610ce4565b5b610978878288016108b3565b935050604085013567ffffffffffffffff81111561099957610998610ce4565b5b6109a5878288016108b3565b925050606085013567ffffffffffffffff8111156109c6576109c5610ce4565b5b6109d2878288016108b3565b91505092959194509250565b6000602082840312156109f4576109f3610ce9565b5b6000610a02848285016108e1565b91505092915050565b610a1481610b60565b82525050565b610a2381610b72565b82525050565b6000610a3482610b10565b610a3e8185610b1b565b9350610a4e818560208601610bb7565b610a5781610cee565b840191505092915050565b6000602082019050610a776000830184610a0b565b92915050565b6000602082019050610a926000830184610a1a565b92915050565b60006020820190508181036000830152610ab28184610a29565b905092915050565b6000610ac4610ad5565b9050610ad08282610c1c565b919050565b6000604051905090565b600067ffffffffffffffff821115610afa57610af9610cab565b5b610b0382610cee565b9050602081019050919050565b600081519050919050565b600082825260208201905092915050565b6000610b3782610b9e565b9150610b4283610b9e565b925082821015610b5557610b54610c4d565b5b828203905092915050565b6000610b6b82610b7e565b9050919050565b60008115159050919050565b600073ffffffffffffffffffffffffffffffffffffffff82169050919050565b6000819050919050565b82818337600083830152505050565b60005b83811015610bd5578082015181840152602081019050610bba565b83811115610be4576000848401525b50505050565b60006002820490506001821680610c0257607f821691505b60208210811415610c1657610c15610c7c565b5b50919050565b610c2582610cee565b810181811067ffffffffffffffff82111715610c4457610c43610cab565b5b80604052505050565b7f4e487b7100000000000000000000000000000000000000000000000000000000600052601160045260246000fd5b7f4e487b7100000000000000000000000000000000000000000000000000000000600052602260045260246000fd5b7f4e487b7100000000000000000000000000000000000000000000000000000000600052604160045260246000fd5b600080fd5b600080fd5b600080fd5b600080fd5b6000601f19601f8301169050919050565b610d0881610b60565b8114610d1357600080fd5b50565b610d1f81610b9e565b8114610d2a57600080fd5b5056fea2646970667358221220e04a79f82053a8c647d11d0fccdd025c2fd8f5e58fca8a0a6010570cac2844e364736f6c63430008070033",
  "immutableReferences": {},
  "source": "//user.sol\n//\npragma solidity >=0.4.22 <0.9.0;\npragma experimental ABIEncoderV2;\n\n//import {AccessControl} from \"../node_modules/openzeppelin-solidity/contracts/access/AccessControl.sol\";\n//import \"@openzeppelin/contracts/access/AccessControl.sol\";\n\ncontract User{\n\n  //bool flag1;\n//\n//()\n//\n//\n//\n//\n //\n //\n //\n //\n //\nstruct UserStruct {\n      \n          address userAddress;     \n          string username;        \n          string insuranceNo;        \n          string userPwd;        \n          uint reTime;         \n          uint userIndex;       \n          bool isValid;\n}\n\naddress[] public  userAddressSet; \nstring[]  private userInsuranceNoSet;  \nstring[]  private userNameSet;  \n\nmapping(address =>UserStruct) private userAddressToUser;\nmapping(string => UserStruct) private insuranceNoToUser;\nmapping(string => UserStruct) private usernameToUser;\n\nevent CreateUserE(address ad);\n\n     function hasAddress(address _address) public view  returns(bool flag3){\n        \n       if (userAddressSet.length == 0){\n           flag3 = true; //\n       }else{\n           \n             if(userAddressToUser[_address].isValid==true){ //,\n                 flag3 =false;       \n             }else{  //\n                 flag3 =true;\n                   }     \n       }    \n       return flag3;    \n   } \n\n\nfunction createUser1(address _userAddress,string memory uInsuranceNo,string memory uName,string memory pwd) public{\n\n\nUserStruct memory uss;\naddress adi;\n       \n    \n   userAddressSet.push(_userAddress);\n   userInsuranceNoSet.push(uInsuranceNo);\n   userNameSet.push(uName);  \n   uint index = userAddressSet.length-1;\n   uss =UserStruct(_userAddress,uInsuranceNo,uName,pwd,block.timestamp,index,true);\n\n   userAddressToUser[_userAddress]=uss;\n   adi=userAddressToUser[_userAddress].userAddress;\n  \n   emit CreateUserE(adi);\n \n}\n\n\n\nfunction getUser(address _addr)public view returns (string memory) {\n\n  UserStruct memory uss1 =userAddressToUser[_addr];\n       \n  //  //UserStruct memory us =userAddressToUser[_addr];\n   // address adi=uss1.userAddress;\n  //  string memory uino = uss1.insuranceNo;\n  //  string memory una = uss1.username;\n  string memory upwd = uss1.userPwd;\n  //  uint ts = uss1.reTime;\n  //  uint ui = uss1.userIndex;\n  //  bool iv = uss1.isValid;\n  \n\n  return upwd;\n\n}\n\n\n}\n\n\n\n\n// v1:0x68eb9549FB5611BFd7D07DFE8493aAeB13088D99\n// v2: 0x11a9BE4d3854868d20389B0E3Bc840aD696E6dDE\n// v3:0x9A03eF263400Dd83B88Ff5FA3D15fC99A383E48C\n\n\n\n\n\n\n\n\n\n\n\n\n\n\n\n",
  "sourcePath": "D:/WinForDev/project/testpetshop/contracts/User.sol",
  "compiler": {
    "name": "solc",
    "version": "0.8.7+commit.e28d00a7.Emscripten.clang"
  },
  "schemaVersion": "3.3.4",
  "updatedAt": "2021-09-09T20:07:49.171Z",
  "networkType": "ethereum",
  "devdoc": {
    "kind": "dev",
    "methods": {},
    "version": 1
  },
  "userdoc": {
    "kind": "user",
    "methods": {},
    "version": 1
  }
}